S019000070657270657475616C63616C656E6461722E73726563FF
S11300000C9439000C94CA110C9430120C9478128C
S11300100C9456000C9456000C9456000C94560004
S11300200C9456000C9456000C9456000C945C11DD
S11300300C9456000C9456000C9456000C945600E4
S11300400C9456000C9456000C9456000C945600D4
S11300500C94560005A84CCDB2D44EB93836A9023A
S11300600C50B9918688083CA6AAAA2ABE000000B2
S1130070803F11241FBECFE5D8E0DEBFCDBF10E026
S1130080A0E6B0E0E6E9FDE202C005900D92AA36D2
S1130090B107D9F720E0AAE6B0E001C01D92A83864
S11300A0B207E1F70E9407110C94C9160C940000E2
S11300B011B888E480B984E886BF089594EA96BFAD
S11300C006B607FEFDCF91B1987F983011F081B14B
S11300D0089590ED93B994E896BF06B607FEFDCF58
S11300E091B1987F983111F081B1089583B984E872
S11300F086BF06B607FEFDCF81B1887F883211F036
S113010081B1089584E986BF80E0089594EA96BF9A
S113011006B607FEFDCF91B1987F983011F081B1FA
S1130120089590ED93B994E896BF06B607FEFDCF07
S113013091B1987F983111F081B1089583B984E821
S113014086BF06B607FEFDCF81B1887F8832A1F055
S113015081B10895FB01E80FF11D908193B994E8F2
S113016096BF06B607FEFDCF91B1987F983211F085
S113017081B108958F5F01C080E0841758F384E94A
S113018086BF80E00895DC0184EA86BF06B607FED8
S1130190FDCF81B1887F8830C9F781ED83B984E8C8
S11301A086BF06B607FEFDCF91B1987F9034C9F79C
S11301B020E00FC084EC86BF06B607FEFDCF91B1E8
S11301C0987F9035C9F7FD01E20FF11D83B180835B
S11301D02F5FE22FF0E0462F50E041505109E41721
S11301E0F50744F384E886BF06B607FEFDCF91B158
S11301F0987F9835C9F7862F90E00197A80FB91F0B
S113020083B18C9384E986BF80E00895382F3F70D2
S1130210982F92959F70990F292F220F220F892FC3
S1130220820F830F08952DEC829F212D1124922F8C
S1130230969596959695990F392F330F330F930F03
S1130240891B26952695269530E1239F800D112440
S11302500895CF93DF93CFE7D0E088818F770E9412
S113026006018093690089810E94060180936800D9
S113027080917500882341F0809181008F710E94E4
S113028006018093670007C0809181008F730E94EC
S1130290060180936700CFE7D0E08B810E940601BE
S11302A0809366008C810E940601809365008D8195
S11302B00E940601809364008E810E94060180934F
S11302C06300DF91CF910895CF93DF93809169000C
S11302D00E941301CFE7D0E08883809168000E94D8
S11302E013018983C0917500CC2399F08091670034
S11302F00E94130190E4C99F90011124409162006F
S113030090E2499FA0011124822B842B80938100C9
S113031006C0809167000E94130180938100809140
S113032066000E941301CFE7D0E08B8380916500C3
S11303300E9413018C83809164000E9413018D83B9
S1130340809163000E9413018E8347E0BE0180E028
S11303500E9486008FEC97E00197F1F700C000003F
S113036080E00E945E008FEC97E00197F1F700C0F7
S11303700000DF91CF9108958FB9779BFECF089548
S1130380CF93C62F98B39F7E98BB0E94BC018C2F3D
S11303900E94BC0188B3806188BBCF910895CF933C
S11303A0C09160006FE08C2F0E94C001C150D1F752
S11303B0CF910895CF93DF9380916C008111F6C2A1
S11303C080916A00811174C00E94CF01609168001D
S11303D0CDEC6C9F812D1124869586958695880F8A
S11303E0982F990F990F890F681B88E00E94C0010C
S11303F0609168006C9F612D1124669566956695E1
S113040087E00E94C001609167006C9F812D1124D8
S1130410869586958695880F982F990F990F890F41
S1130420681B86E00E94C001609167006C9F612D8B
S1130430112466956695669585E00E94C0016091D9
S113044064006C9F812D1124869586958695880F6E
S1130450982F990F990F890F681B84E00E94C0019F
S1130460609164006C9F612D112466956695669574
S113047083E00E94C001609165006C9F812D11246E
S1130480869586958695880F982F990F990F890FD1
S1130490681B82E00E94C001609165006C9F612D21
S11304A0112466956695669581E00E94C001F7C6A1
S11304B0813009F01EC10E94CF01E0917600F091D5
S11304C077009F013695279536952795369527957C
S11304D0A5ECB0E20E94A616AC01529542954F706D
S11304E045275F704527C8EED3E04C9FC0014D9F60
S11304F0900D5C9F900D1124AF01481B590B9A017C
S1130500ADECBCEC0E94A6169695879596958795BA
S113051096958795BC01660F771F880F991F880FE2
S1130520991F880F991F860F971F281B390B622F5D
S113053088E00E94C00140917600509177009A01B2
S1130540369527953695279536952795A5ECB0E2EF
S11305500E94A6169C01329522952F7023273F7086
S113056023272C9FC0012D9F900D3C9F900D11249B
S11305709A01281B390BADECBCEC0E94A616AC0109
S11305805695479556954795569547959A010E94D5
S1130590A616969587959695879596958795BC0109
S11305A0660F771F880F991F880F991F880F991F4F
S11305B0860F971F281B390B622F87E00E94C0010A
S11305C040917600509177009A013695279536959B
S11305D0279536952795A5ECB0E20E94A61692952C
S11305E082958F7089279F7089278C9F90018D9F9A
S11305F0300D9C9F300D1124CA01821B930B9C016A
S11306003695279536952795ABE7B4E10E94A61653
S1130610AC01569547959A01ADECBCEC0E94A61628
S1130620969587959695879596958795BC01660FBF
S1130630771F880F991F880F991F880F991F860F9E
S1130640971F281B390B622F86E00E94C00120915E
S1130650760030917700369527953695279536950F
S11306602795A5ECB0E20E94A616929582958F700C
S113067089279F708927682F85E00E94C0016091B7
S11306806400CDEC6C9F812D11248695869586950A
S1130690880F982F990F990F890F681B84E00E9487
S11306A0C001609164006C9F612D1124669566956C
S11306B0669583E00E94C001609165006C9F812D66
S11306C01124869586958695880F982F990F990FF2
S11306D0890F681B82E00E94C001609165006C9FD5
S11306E0612D112466956695669581E00E94C0018E
S11306F0D6C5823009F01EC10E94CF01E091860068
S1130700F09187009F013695279536952795369564
S11307102795A5ECB0E20E94A616AC01529542952D
S11307204F7045275F704527C8EED3E04C9FC0014A
S11307304D9F900D5C9F900D1124AF01481B590BE8
S11307409A01ADECBCEC0E94A616969587959695F9
S1130750879596958795BC01660F771F880F991F1B
S1130760880F991F880F991F860F971F281B390B15
S1130770622F88E00E94C00140918600509187005A
S11307809A01369527953695279536952795A5ECA4
S1130790B0E20E94A6169C01329522952F70232761
S11307A03F7023272C9FC0012D9F900D3C9F900DDF
S11307B011249A01281B390BADECBCEC0E94A6163F
S11307C0AC015695479556954795569547959A0188
S11307D00E94A616969587959695879596958795E2
S11307E0BC01660F771F880F991F880F991F880F08
S11307F0991F860F971F281B390B622F87E00E94D1
S1130800C00140918600509187009A013695279542
S11308103695279536952795A5ECB0E20E94A61645
S1130820929582958F7089279F7089278C9F90015C
S11308308D9F300D9C9F300D1124CA01821B930B98
S11308409C013695279536952795ABE7B4E10E9430
S1130850A616AC01569547959A01ADECBCEC0E94E6
S1130860A616969587959695879596958795BC0136
S1130870660F771F880F991F880F991F880F991F7C
S1130880860F971F281B390B622F86E00E94C00138
S113089020918600309187003695279536952795C7
S11308A036952795A5ECB0E20E94A61692958295FE
S11308B08F7089279F708927682F85E00E94C00167
S11308C060917900CDEC6C9F812D112486958695DD
S11308D08695880F982F990F990F890F681B84E0CC
S11308E00E94C001609179006C9F612D112466956E
S11308F06695669583E00E94C001609178006C9FC4
S1130900812D1124869586958695880F982F990FA9
S1130910990F890F681B82E00E94C00160917800E2
S11309206C9F612D112466956695669581E00E9401
S1130930C001B5C40E94CF0160917300CDEC6C9FDF
S1130940812D1124869586958695880F982F990F69
S1130950990F890F681B88E00E94C00160917300A1
S11309606C9F612D112466956695669587E00E94BB
S1130970C001609174006C9F812D11248695869529
S11309808695880F982F990F990F890F681B86E019
S11309900E94C001609174006C9F612D11246695C2
S11309A06695669585E00E94C00179C480916B00CC
S11309B0813009F063C080916A0081115FC00E9498
S11309C0CF0160916800CDEC6C9F812D1124869538
S11309D086958695880F982F990F990F890F681B14
S11309E088E00E94C001609168006C9F612D112411
S11309F066956695669587E00E94C00160916700E0
S1130A006C9F812D1124869586958695880F982F45
S1130A10990F990F890F681B86E00E94C0016091AD
S1130A2067006C9F612D112466956695669585E037
S1130A300E94C001609164006C9F812D11248695F1
S1130A4086958695880F982F990F990F890F681BA3
S1130A5084E00E94C001609164006C9F612D1124A8
S1130A6066956695669583E00E94C0016FE082E01A
S1130A700E94C0016FE081E00E94C00180916B0080
S1130A80823009F063C080916A0081115FC00E94C6
S1130A90CF0160916800CDEC6C9F812D1124869567
S1130AA086958695880F982F990F990F890F681B43
S1130AB088E00E94C001609168006C9F612D112440
S1130AC066956695669587E00E94C001609167000F
S1130AD06C9F812D1124869586958695880F982F75
S1130AE0990F990F890F681B86E00E94C0016091DD
S1130AF067006C9F612D112466956695669585E067
S1130B000E94C0016FE084E00E94C0016FE083E0B6
S1130B100E94C001609165006C9F812D112486950F
S1130B2086958695880F982F990F990F890F681BC2
S1130B3082E00E94C001609165006C9F612D1124C8
S1130B4066956695669581E00E94C00180916B0070
S1130B50833009F063C080916A0081115FC00E94F4
S1130B60CF0160916800CDEC6C9F812D1124869596
S1130B7086958695880F982F990F990F890F681B72
S1130B8088E00E94C001609168006C9F612D11246F
S1130B9066956695669587E00E94C0016FE086E0E1
S1130BA00E94C0016FE085E00E94C0016091640072
S1130BB06C9F812D1124869586958695880F982F94
S1130BC0990F990F890F681B84E00E94C0016091FE
S1130BD064006C9F612D112466956695669583E08B
S1130BE00E94C001609165006C9F812D112486953F
S1130BF086958695880F982F990F990F890F681BF2
S1130C0082E00E94C001609165006C9F612D1124F7
S1130C1066956695669581E00E94C00180916B009F
S1130C20843009F063C080916A0081115FC00E9422
S1130C30CF016FE088E00E94C0016FE087E00E946E
S1130C40C00160916700CDEC6C9F812D11248695C5
S1130C5086958695880F982F990F990F890F681B91
S1130C6086E00E94C001609167006C9F612D112491
S1130C7066956695669585E00E94C0016091640062
S1130C806C9F812D1124869586958695880F982FC3
S1130C90990F990F890F681B84E00E94C00160912D
S1130CA064006C9F612D112466956695669583E0BA
S1130CB00E94C001609165006C9F812D112486956E
S1130CC086958695880F982F990F990F890F681B21
S1130CD082E00E94C001609165006C9F612D112427
S1130CE066956695669581E00E94C00180916B00CF
S1130CF0813009F00EC180916A00813009F009C188
S1130D000E94CF01E0917600F09177009F01369523
S1130D1027953695279536952795A5ECB0E20E9440
S1130D20A616AC01529542954F7045275F70452732
S1130D30C8EED3E04C9FC0014D9F900D5C9F900D79
S1130D401124AF01481B590B9A01ADECBCEC0E9475
S1130D50A616969587959695879596958795BC0141
S1130D60660F771F880F991F880F991F880F991F87
S1130D70860F971F281B390B622F88E00E94C00141
S1130D8040917600509177009A01369527953695D3
S1130D90279536952795A5ECB0E20E94A6169C01EE
S1130DA0329522952F7023273F7023272C9FC00153
S1130DB02D9F900D3C9F900D11249A01281B390BF7
S1130DC0ADECBCEC0E94A616AC0156954795569521
S1130DD04795569547959A010E94A616969587952C
S1130DE09695879596958795BC01660F771F880F12
S1130DF0991F880F991F880F991F860F971F281B0B
S1130E00390B622F87E00E94C00140917600509117
S1130E1077009A0136952795369527953695279527
S1130E20A5ECB0E20E94A616929582958F70892750
S1130E309F7089278C9F90018D9F300D9C9F300D52
S1130E401124CA01821B930B9C0136952795369574
S1130E502795ABE7B4E10E94A616AC0156954795D9
S1130E609A01ADECBCEC0E94A616969587959695D2
S1130E70879596958795BC01660F771F880F991FF4
S1130E80880F991F880F991F860F971F281B390BEE
S1130E90622F86E00E94C001209176003091770095
S1130EA0369527953695279536952795A5ECB0E286
S1130EB00E94A616929582958F7089279F70892724
S1130EC0682F85E00E94C00160916400CDEC6C9FA6
S1130ED0812D1124869586958695880F982F990FD4
S1130EE0990F890F681B84E00E94C001609164001F
S1130EF06C9F612D112466956695669583E00E942A
S1130F00C0016FE082E00E94C0016FE081E00E94B6
S1130F10C00180916B00823009F00EC180916A009B
S1130F20813009F009C10E94CF01E0917600F0916F
S1130F3077009F0136952795369527953695279501
S1130F40A5ECB0E20E94A616AC01529542954F70F2
S1130F5045275F704527C8EED3E04C9FC0014D9FE5
S1130F60900D5C9F900D1124AF01481B590B9A0101
S1130F70ADECBCEC0E94A616969587959695879540
S1130F8096958795BC01660F771F880F991F880F68
S1130F90991F880F991F860F971F281B390B622FE3
S1130FA088E00E94C00140917600509177009A0138
S1130FB0369527953695279536952795A5ECB0E275
S1130FC00E94A6169C01329522952F7023273F700C
S1130FD023272C9FC0012D9F900D3C9F900D112421
S1130FE09A01281B390BADECBCEC0E94A616AC018F
S1130FF05695479556954795569547959A010E945B
S1131000A616969587959695879596958795BC018E
S1131010660F771F880F991F880F991F880F991FD4
S1131020860F971F281B390B622F87E00E94C0018F
S113103040917600509177009A0136952795369520
S1131040279536952795A5ECB0E20E94A6169295B1
S113105082958F7089279F7089278C9F90018D9F1F
S1131060300D9C9F300D1124CA01821B930B9C01EF
S11310703695279536952795ABE7B4E10E94A616D9
S1131080AC01569547959A01ADECBCEC0E94A616AE
S1131090969587959695879596958795BC01660F45
S11310A0771F880F991F880F991F880F991F860F24
S11310B0971F281B390B622F86E00E94C0012091E4
S11310C07600309177003695279536952795369595
S11310D02795A5ECB0E20E94A616929582958F7092
S11310E089279F708927682F85E00E94C0016FE0DF
S11310F084E00E94C0016FE083E00E94C00160911F
S11311006500CDEC6C9F812D11248695869586957E
S1131110880F982F990F990F890F681B82E00E94FE
S1131120C001609165006C9F612D112466956695E0
S1131130669581E00E94C00180916B00833009F0C4
S113114050C080916A00813009F04BC00E94CF01E9
S11311506FE088E00E94C0016FE087E00E94C00158
S11311606FE086E00E94C0016FE085E00E94C0014C
S113117060916400CDEC6C9F812D11248695869539
S11311808695880F982F990F990F890F681B84E013
S11311900E94C001609164006C9F612D11246695CA
S11311A06695669583E00E94C001609165006C9F1E
S11311B0812D1124869586958695880F982F990FF1
S11311C0990F890F681B82E00E94C001609165003D
S11311D06C9F612D112466956695669581E00E9449
S11311E0C00180916B00813059F580916A00833091
S11311F039F50E94CF0160917300CDEC6C9F812D75
S11312001124869586958695880F982F990F990FA6
S1131210890F681B88E00E94C001609173006C9F75
S1131220612D112466956695669587E00E94C0013C
S11312306FE086E00E94C0016FE085E00E94C0017B
S113124080916B00823059F580916A00833039F5C2
S11312500E94CF016FE088E00E94C0016FE087E048
S11312600E94C00160917400CDEC6C9F812D11240B
S1131270869586958695880F982F990F990F890FD3
S1131280681B86E00E94C001609174006C9F612D10
S1131290112466956695669585E00E94C001DF91EC
S11312A0CF9108954F925F926F927F928F929F9207
S11312B0AF92BF92CF92DF92EF92FF920F931F9360
S11312C0CF93DF93F82E8A01C62FD0E08EE090E012
S11312D08C1B9D0B6CE070E00E949216072E000C94
S11312E0880B990B0E9496140E94D1144B015C0147
S11312F0B80160547D4E80E090E00E949414A501F2
S113130094010E9481132B013C0120E030E040E471
S113131051E4C501B4010E94A3154B015C01BE0157
S1131320DD0F880B990B0E949614A50194010E946D
S1131330821320E030E040E450E40E9481134B012A
S11313405C016F2D70E080E090E00E9496146B01C8
S11313507C0120E030E049E153E4C501B4010E947E
S1131360A31520E030E040E050E40E94821320E026
S113137030E040EA50E40E94F3130E94D1149B0130
S1131380AC01C701B6010E9482136B017C0120E00D
S113139030E846EB53E4C301B2010E94A3159B015C
S11313A0AC01C701B6010E9482136B017C0120E0ED
S11313B030E040E85EE3C301B2010E94A3150E943D
S11313C0D1149B01AC01C701B6010E9482136B01C9
S11313D07C0120E030E048EC52E4C301B2010E94F9
S11313E0F3130E94D1149B01AC01C701B6010E9402
S11313F081134B015C0120E030E048EC53E4C3016D
S1131400B2010E94F3130E94D1149B01AC01C501E7
S1131410B4010E94821320E03AE54AEF56E40E94A8
S113142081134B015C0124E634E54CE05AE40E944C
S1131430EE13882354F420E036EA4AEF56E4C70159
S1131440B6010E9481134B015C01C501B401DF9117
S1131450CF911F910F91FF90EF90DF90CF90BF90AD
S1131460AF909F908F907F906F905F904F90089572
S11314704F925F926F927F928F929F92AF92BF92A0
S1131480CF92DF92EF92FF92CF93DF93CDB7DEB787
S113149066970FB6F894DEBF0FBECDBF6B017C011B
S11314A05E8B4D8B23E33BE94AE954E40E94F3133A
S11314B069837A838B839C839B01AC010E94A3156F
S11314C06D837E838F8398879B01AC0169817A81C8
S11314D08B819C810E94A3156D877E878F87988B53
S11314E025EA3EE34CEE51E4C701B6010E94A31580
S11314F023EB36E643E15AE40E9482134B015C017C
S113150025E63BE047EF58E36D817E818F81988526
S11315100E94A3159B01AC01C501B4010E94821372
S11315204B015C0123E13EE646E254E36D857E8592
S11315308F8598890E94A3159B01AC01C501B40154
S11315400E9481134B015C0128EB3EED44E053E41F
S113155069817A818B819C810E94A3152CE53FE8E7
S113156046E253E40E9482132B013C012AE53AE44B
S113157046E15CE36D817E818F8198850E94A3158D
S11315809B01AC01C301B2010E94811325E33AEF30
S11315904EE85CE30E94A3150E9410162AED33E086
S11315A04DEA59E30E94A3159B01AC01C501B401A6
S11315B00E948213698B7A8B8B8B9C8B25EC37ED85
S11315C048EE51E4C701B6010E94A31523EB3CE9A0
S11315D043EB53E40E9482134B015C012AE93BEA8A
S11315E04BE058E36D817E818F8198850E94A3151D
S11315F09B01AC01C501B4010E9481134B015C0144
S113160025E23EED48E656E36D857E858F85988913
S11316100E94A3159B01AC01C501B4010E94811372
S113162069877A878B879C8721E938EE40EC53E4FD
S1131630C701B6010E94A3152DE333E049E953E441
S11316400E9482134B015C0126E63FEC4FE25CE30F
S11316506D817E818F8198850E94A3159B01AC01C9
S1131660C501B4010E9482134B015C012CEC3DE5E1
S11316704FE457E36D857E858F8598890E94A31575
S11316809B01AC01C501B4010E9482132B013C01F2
S113169023ED35E543EC53E4C701B6010E94A315DD
S11316A027E03FE54AEA51E40E9482136B017C0182
S11316B024EC32EA48ED5AE36D817E818F8198856E
S11316C00E94A3159B01AC01C701B6010E948113BE
S11316D06B017C0123EE33E640E256E36D857E85A3
S11316E08F8598890E94A3159B01AC01C701B6019F
S11316F00E9481136B017C0121E93BE04EEC59E32C
S113170069817A818B819C810E94A3159B01AC0124
S113171065EC7FE881E39EE30E9481134B015C0149
S113172025E33AEF4EE85CE369857A858B859C85F1
S11317300E94A3150E9410169B01AC01C501B401BF
S11317400E94A3154B015C0125E33AEF4EE05DE3F3
S113175069857A858B859C850E94A3150E94101645
S113176027E230EA49E05BE30E94A3159B01AC0148
S1131770C501B4010E9482134B015C0125E33AEFD9
S11317804EE85CE3C301B2010E94A3150E94101647
S113179027E138E440ED5EE30E94A3159B01AC0110
S11317A0C501B4010E9481134B015C0125E33AEFAA
S11317B04EE05DE3C301B2010E94A3150E9410161E
S11317C026E234EE43E85CE30E94A3159B01AC01DE
S11317D0C501B4010E9482134B015C0120E537E787
S11317E046E55DE3C301B2010E94A3150E941016F1
S11317F027E137EB41ED59E30E94A3159B01AC01AE
S1131800C501B4010E9481134B015C0125E33AEF49
S11318104EE05DE3C701B6010E94A3150E941016B5
S113182023EC34E64AE25CE30E94A3159B01AC017D
S1131830C501B4010E9482134B015C01A301920112
S113184069857A858B859C850E94821325E33AEF0E
S11318504EE85CE30E94A3150E94101627EE3DE1BA
S113186047EA5BE30E94A3159B01AC01C501B401E7
S11318700E9481134B015C01A301920169857A8561
S11318808B859C850E94811325E33AEF4EE85CE347
S11318900E94A3150E94101623EB3BE742EF5BE383
S11318A00E94A3159B01AC01C501B4010E948113E0
S11318B04B015C01A7019601C701B6010E94821386
S11318C06B017C019B01AC0169857A858B859C85C4
S11318D00E94821325E33AEF4EE85CE30E94A315CD
S11318E00E94101627E137EB41ED59E30E94A3153E
S11318F09B01AC01C501B4010E9482134B015C0140
S113190029853A854B855C85C701B6010E94811300
S113191025E33AEF4EE85CE30E94A3150E941016FB
S113192027E137EB41ED59E30E94A3159B01AC017C
S1131930C501B4010E9481134B015C01A70196010A
S1131940C301B2010E94821325E33AEF4EE85CE33F
S11319500E94A3150E94101622E539E44DE15AE3D2
S11319600E94A3159B01AC01C501B4010E9481131F
S11319704B015C01A3019201C701B6010E948113CE
S113198025E33AEF4EE85CE30E94A3150E9410168B
S11319902FE632E143E85AE30E94A3159B01AC0110
S11319A0C501B4010E9482136B017C01A301920161
S11319B0C301B2010E9482139B01AC0169857A853F
S11319C08B859C850E94821325E33AEF4EE85CE305
S11319D00E94A3150E9410162FE632E143E05AE359
S11319E00E94A3159B01AC01C701B6010E9482139A
S11319F06B017C0120E030E040E351EC69817A81A5
S1131A008B819C810E94EE1388230CF051C026E543
S1131A1030EF4BE55AE369817A818B819C810E9486
S1131A20A3152FE632E143E85AE30E9482134B01E7
S1131A305C0122E435E14DE659E36D817E818F81BD
S1131A4098850E94A3159B01AC01C501B4010E94B5
S1131A5082134B015C0129E734EC4DE057E36D85BB
S1131A607E858F8598890E94A3159B01AC01C501D1
S1131A70B4010E9481134B015C0129E332EF4DEA6A
S1131A8053E369817A818B819C810E94A3159B0118
S1131A90AC016D857E858F8598890E94A3159B0175
S1131AA0AC01C501B4010E9481134B015C0124C047
S1131AB023EB3FEE4AE859E369817A818B819C816B
S1131AC00E94A31527E830EC41E959E30E948113F1
S1131AD04B015C012BE03DE549E859E36D817E81D2
S1131AE08F8198850E94A3159B01AC01C501B401A7
S1131AF00E9482134B015C01A701960169897A89CE
S1131B008B899C890E948213A50194010E948113F0
S1131B1020E030E040E05FE30E9482136B017C012F
S1131B208D899E8968E170E00E949216072E000C50
S1131B30880B990B0E9496149B01AC01C701B60156
S1131B400E9482130E94D11466960FB6F894DEBFE9
S1131B500FBECDBFDF91CF91FF90EF90DF90CF907C
S1131B60BF90AF909F908F907F906F905F904F90B9
S1131B7008954F925F926F927F928F929F92AF924D
S1131B80BF92CF92DF92EF92FF92CF93DF93CDB7C4
S1131B90DEB728970FB6F894DEBF0FBECDBF5A014B
S1131BA026E631EA45E15AE40E9481136B017C0187
S1131BB0C50168E170E00E949216072E000C880BA4
S1131BC0990B0E9496149B01AC01C701B6010E94B7
S1131BD0811320E03DEA4EE057E40E94F3136B01C9
S1131BE07C019B01AC010E94A3154B015C012DE01B
S1131BF03FE94CE057E4C701B6010E94A3152AEB64
S1131C0033EC42EB53E40E9482132B013C0126E1A6
S1131C1039E743E259E3C501B4010E94A3159B01CE
S1131C20AC01C301B2010E9481132B013C0129E5DF
S1131C3039ED40E055E3C701B6010E94A3159B01AD
S1131C40AC01C501B4010E94A3159B01AC01C30101
S1131C50B2010E9481132B013C0125EC30EA4CE0D7
S1131C6057E4C701B6010E94A31525EB3BE34CE8FA
S1131C7053E40E94821369837A838B839C8321EDCE
S1131C8036EF4EE959E3C501B4010E94A3159B0147
S1131C90AC0169817A818B819C810E948213698362
S1131CA07A838B839C832DEE37ED4DE95BE3C7018B
S1131CB0B6010E94A3159B01AC016DE971E185EFAA
S1131CC09FE30E9481136D837E838F8398872BE823
S1131CD031EE4AE657E3C501B4010E94A3159B0106
S1131CE0AC016D817E818F8198850E9481134B01A7
S1131CF05C0125E33AEF4EE85CE3C301B2010E94C4
S1131D00A3150E9410169B01AC01C501B4010E94E9
S1131D10A3154B015C0126EF3FEC43ED58E3C701EB
S1131D20B6010E94A3159B01AC016CE578EC83EA33
S1131D309CE30E9481136B017C0125E33AEF4EE0A2
S1131D405DE3C301B2010E94A3150E9410169B011A
S1131D50AC01C701B6010E94A3159B01AC01C501EA
S1131D60B4010E9482136B017C0120E537E746E54C
S1131D705DE3C301B2010E94A3150E94101624E280
S1131D803BE048E959E30E94A3159B01AC01C7015C
S1131D90B6010E9482139B01AC0169817A818B8117
S1131DA09C810E94821325E33AEF4EE85CE30E9493
S1131DB0A3156B017C012BED3FE049EC50E40E943C
S1131DC0F3130E94D1142BED3FE049EC50E40E9440
S1131DD0A3159B01AC01C701B6010E9481132BED31
S1131DE03FE049E450E40E94F31320E030E040EC8B
S1131DF050E40E94A3150E94D11428960FB6F894BB
S1131E00DEBF0FBECDBFDF91CF91FF90EF90DF908B
S1131E10CF90BF90AF909F908F907F906F905F9086
S1131E204F9008958F929F92AF92BF92CF92DF927C
S1131E30EF92FF92CF93DF93EB01AC016CE08FE163
S1131E400E94520924EB36E643E15AE40E948113CE
S1131E5025EA3EE34CEE51E40E94F3130E94D114B0
S1131E604B015C01AE010E94380A6B017C01AE019A
S1131E700E94B90D20E030E040E151E40E949E153B
S1131E8088236CF020E030E040E85FE3C501B40152
S1131E900E948113AE010E94380A6B017C01C701C4
S1131EA0B601DF91CF91FF90EF90DF90CF90BF907C
S1131EB0AF909F908F9008952F923F924F925F9290
S1131EC06F927F928F929F92AF92BF92CF92DF9246
S1131ED0EF92FF920F931F93CF93DF93EA0124EBCA
S1131EE036E643E15AE40E94811325EA3EE34CEED0
S1131EF051E40E94F31320E030E040E05FE30E94ED
S1131F0082130E94D1144B015C0120E030E040E8D0
S1131F105FE30E948213AE010E94380AAE010E9460
S1131F20B90D562E472E382E292E0F2EC12CD12C0A
S1131F30F0E8EF2EFFE3FF2EF02D20E030E040E844
S1131F405FE3C701B6010E9482136B017C019B0110
S1131F50AC01C501B4010E948213AE010E94380A8B
S1131F60AE010E94B90D162F072F782E692E262F49
S1131F70372F482F592F652D742D832D922D0E94B4
S1131F80EE13882371F0512E402E372C262C20E09E
S1131F9030E040E651E4C701B6010E94EE13882305
S1131FA064F220E030E040E85FE3C701B6010E943C
S1131FB08113DF91CF911F910F91FF90EF90DF90EC
S1131FC0CF90BF90AF909F908F907F906F905F90D5
S1131FD04F903F902F9008952F923F924F925F928F
S1131FE06F927F928F929F92AF92BF92CF92DF9225
S1131FF0EF92FF920F931F93CF93DF93EA0119019E
S11320000E9452094B015C0124EB36E643E15AE499
S11320100E94811325EA3EE34CEE51E40E94F3133F
S11320200E94D1142B013C0120E030E040E85FE342
S11320300E948213A1010E94380A6B017C019B015A
S1132040AC01C501B4010E94EE1388233CF4A10144
S1132050C301B2010E94380A6B017C01B101CE01B7
S11320600E94120F162F072F782E692E262F372F36
S1132070482F592FC701B6010E94EE13181694F089
S1132080D0938700C0938600B101CE0101970E94CE
S1132090120FC12FD02F572C462C162F072F782E16
S11320A0692E0DC0CE01019690938700809386001F
S11320B0B1010E94120FC62FD72F582E492EA70107
S11320C09601C501B4010E94811320E030E040E88C
S11320D05FE30E9482130E94651460937800212FAD
S11320E0302F472D562DC701B6010E94811320E0E1
S11320F030E048EE51E40E94F3130E94D1146B01C6
S11321007C0120E030E040E351E40E9482130E940D
S1132110651460937900212F302F472D562D6C2F95
S11321207D2F852D942D0E94811320E030E846EB0D
S113213053E40E949E151816DCF4A101612F702F40
S1132140872D962D0E945C0F9B01AC01C701B6013F
S11321500E949E15882364F020E030E040E251E4C0
S1132160C701B6010E9482130E946514609379002E
S1132170809179008D3018F08C5080937900809193
S113218079008B3098F020E030E040E850E4C7015B
S1132190B6010E94EE1388234CF48091860090913E
S11321A087000197909387008093860060E070E039
S11321B0CB01DF91CF911F910F91FF90EF90DF90B2
S11321C0CF90BF90AF909F908F907F906F905F90D3
S11321D04F903F902F90089585E083BF81E089BFA1
S11321E07894089581B3837F81BB80E881BB8CE0C0
S11321F082BB87B38B7F87BB84E088BB81E08ABBCB
S1132200089515BE14BE80EE8BBF7894089587B3ED
S1132210806B87BB8DB182658DB967E08BE00E94CE
S1132220C00165E08AE00E94C00161E08CE00E9488
S1132230C0016FEF89E00E94C0010E94F2100E9469
S1132240EC100E9401110E94580067E08FE790E0B3
S11322500E94C3000E9429018FEC97E00197F1F7D7
S113226000C000004091630050E04053584F509329
S11322707700409376002091610030E06091640023
S1132280809165000E94EC0F0E94DA019091670032
S1132290809174009813E6CF909168008091730048
S11322A09813E0CF80916D008823E1F20E94DA0157
S11322B082B3806882BBD6CF1F920F920FB60F9263
S11322C011242F933F934F935F936F937F938F9337
S11322D09F93AF93BF93EF93FF938091710090917D
S11322E072000196909372008093710020916F00A8
S11322F0309170002F5F3F4F3093700020936F0038
S11323000A9708F180916E00811119C00E945E0045
S11323108FEC97E00197F1F700C0000067E08FE7CA
S113232090E00E94C30080917F000E94060190917A
S11323306900891721F00E9429010E94DA01109294
S113234072001092710080916F00909170000F974D
S113235080F080916E00882341F090916C0081E0C0
S1132360892780936C000E94DA0110927000109209
S11323706F00FF91EF91BF91AF919F918F917F91EA
S11323806F915F914F913F912F910F900FBE0F90DE
S11323901F9018951F920F920FB60F9211242F932E
S11323A03F934F935F936F937F938F939F93AF93D9
S11323B0BF93EF93FF9380916E00811109C09091B8
S11323C06A009F5F90936A00943010F010926A0044
S11323D090916A0091110CC0882351F010926A0008
S11323E010926B0010926C000E94640110926E00B7
S11323F080916A00813079F480916E00882359F0CD
S113240081E080936A0010926B0010926C000E942D
S1132410640110926E0080916A00833081F480918F
S11324206E00882361F083E080936A0010926B0051
S113243010926C0081E080936D0010926E00FF9109
S1132440EF91BF91AF919F918F917F916F915F9128
S11324504F913F912F910F900FBE0F901F901895A1
S11324601F920F920FB60F9211248F939F93809116
S11324706A00811110C091E090936E0090916B00FE
S11324809F5F90936B00953030F010926B00109228
S11324906C0010926E00813081F491E090936E0094
S11324A090916B009F5F90936B00943030F010928A
S11324B06B0010926C0010926E00833091F481E0F6
S11324C080936E0080916B008F5F80936B008330EC
S11324D040F010926B0010926C0010926D001092FC
S11324E06E009F918F910F900FBE0F901F901895C3
S11324F01F920F920FB60F9211242F933F934F9375
S11325005F938F939F9380916D00882349F080910E
S11325106E00811105C010926D0082B38F7782BB6B
S113252080916E00882309F465C090916A0091112E
S113253061C090916B009130D9F5209165002F5FB7
S11325402093650030916400343031F0363021F04E
S1132550393011F03B3031F42F3150F121E0209328
S1132560650026C0313061F0333051F0353041F030
S1132570373031F0383021F03A3011F03C3031F45A
S11325802032B0F021E02093650012C04091760023
S1132590509177004430510530F42E3148F021E059
S11325A02093650005C02D3118F021E020936500CB
S11325B0923051F4209164002F5F209364002D30F9
S11325C018F021E020936400933049F420916700CF
S11325D02F5F20936700283110F010926700943029
S11325E049F4909168009F5F909368009C3310F0C9
S11325F010926800882309F45BC090916A009130BE
S113260009F056C090916B009130D9F52091650086
S11326102F5F2093650030916400343031F0363000
S113262021F0393011F03B3031F42F3150F121E0F9
S11326302093650026C0313061F0333051F03530DD
S113264041F0373031F0383021F03A3011F03C307D
S113265031F42032B0F021E02093650012C04091A3
S11326607600509177004430510530F42E3148F013
S113267021E02093650005C02D3118F021E020935E
S11326806500923051F4209164002F5F2093640020
S11326902D3018F021E020936400933049F4909198
S11326A063009F5F90936300943610F01092630070
S11326B08823E1F080916A008330C1F480916B003B
S11326C0813049F4909174009F5F90937400983125
S11326D010F010927400823049F4809173008F5F7F
S11326E0809373008C3310F0109273009F918F913C
S11326F05F914F913F912F910F900FBE0F901F90BC
S113270018955058BB27AA270E9499130C944C156E
S11327100E943E1538F00E94451520F039F49F3F81
S113272019F426F40C943B150EF4E095E7FB0C9495
S11327300C15E92F0E945D1558F3BA176207730749
S11327408407950720F079F4A6F50C9497150EF4F8
S1132750E0950B2EBA2FA02D0B01B90190010C01AD
S1132760CA01A0011124FF27591B99F0593F50F4C5
S1132770503E68F11A16F040A22F232F342F44271D
S1132780585FF3CF469537952795A795F040539515
S1132790C9F77EF41F16BA0B620B730B840BBAF0E5
S11327A09150A1F0FF0FBB1F661F771F881FC2F750
S11327B00EC0BA0F621F731F841F48F48795779564
S11327C06795B795F7959E3F08F0B0CF9395880F1E
S11327D008F09927EE0F9795879508950E94E814BD
S11327E008F481E008950E9407140C944C150E948B
S11327F0451558F00E943E1540F029F45F3F29F03A
S11328000C940C1551110C9498150C943B150E94C2
S11328105D1568F39923B1F3552391F3951B550B7B
S1132820BB27AA2762177307840738F09F5F5F4F9F
S1132830220F331F441FAA1FA9F335D00E2E3AF0DE
S1132840E0E832D091505040E695001CCAF72BD0F6
S1132850FE2F29D0660F771F881FBB1F2617370747
S11328604807AB07B0E809F0BB0B802DBF01FF2779
S113287093585F4F3AF09E3F510578F00C940C1535
S11328800C9498155F3FE4F3983ED4F386957795BE
S11328906795B795F7959F5FC9F7880F911D969532
S11328A0879597F90895E1E0660F771F881FBB1F8E
S11328B0621773078407BA0720F0621B730B840B3B
S11328C0BA0BEE1F88F7E09508950E94651588F00D
S11328D09F5798F0B92F9927B751B0F0E1F0660FE0
S11328E0771F881F991F1AF0BA95C9F714C0B13021
S11328F091F00E949715B1E008950C949715672FF5
S1132900782F8827B85F39F0B93FCCF3869577954F
S11329106795B395D9F73EF4909580957095619538
S11329207F4F8F4F9F4F0895E89409C097FB3EF463
S113293090958095709561957F4F8F4F9F4F992308
S1132940A9F0F92F96E9BB279395F6958795779586
S11329506795B795F111F8CFFAF4BB0F11F460FF46
S11329601BC06F5F7F4F8F4F9F4F16C0882311F09E
S113297096E911C0772321F09EE8872F762F05C0B2
S1132980662371F096E8862F70E060E02AF09A954D
S1132990660F771F881FDAF7880F9695879597F942
S11329A008950E947F1590F09F3748F4911116F016
S11329B00C94981560E070E080E89FEB089526F48D
S11329C01B16611D711D811D0C9412150C942D157F
S11329D0990F0008550FAA0BE0E8FEEF161617062C
S11329E0E807F907C0F012161306E407F50798F094
S11329F0621B730B840B950B39F40A2661F0232BAD
S1132A00242B252B21F408950A2609F4A140A69528
S1132A108FEF811D811D089597F99F6780E870E00D
S1132A2060E00895882371F4772321F09850872B70
S1132A30762F07C0662311F499270DC09051862B79
S1132A4070E060E02AF09A95660F771F881FDAF726
S1132A50880F9695879597F908959F3F31F0915087
S1132A6020F4879577956795B795880F911D96956E
S1132A70879597F908959FEF80EC089500240A94B0
S1132A801616170618060906089500240A94121645
S1132A901306140605060895092E0394000C11F478
S1132AA0882352F0BB0F40F4BF2B11F460FF04C025
S1132AB06F5F7F4F8F4F9F4F089557FD9058440F7E
S1132AC0551F59F05F3F71F04795880F97FB991F89
S1132AD061F09F3F79F08795089512161306140646
S1132AE0551FF2CF4695F1DF08C0161617061806D3
S1132AF0991FF1CF869571056105089408950E9488
S1132B006515A0F0BEE7B91788F4BB279F3860F4B9
S1132B101616B11D672F782F8827985FF7CF8695F3
S1132B2077956795B11D93959639C8F30895E89400
S1132B30BB2766277727CB0197F908950E94E814ED
S1132B4008F48FEF08950E94B6150C944C150E945A
S1132B503E1538F00E94451520F0952311F00C9491
S1132B600C150C943B1511240C9498150E945D15BA
S1132B7070F3959FC1F3950F50E0551F629FF001CC
S1132B80729FBB27F00DB11D639FAA27F00DB11DE5
S1132B90AA1F649F6627B00DA11D661F829F22276E
S1132BA0B00DA11D621F739FB00DA11D621F839FF5
S1132BB0A00D611D221F749F3327A00D611D231FCB
S1132BC0849F600D211D822F762F6A2F11249F5719
S1132BD050409AF0F1F088234AF0EE0FFF1FBB1F1C
S1132BE0661F771F881F91505040A9F79E3F5105DB
S1132BF080F00C940C150C9498155F3FE4F3983E08
S1132C00D4F3869577956795B795F795E7959F5F84
S1132C10C1F7FE2B880F911D9695879597F9089516
S1132C209F930E941A160F9007FCEE5F0C944316B4
S1132C300C943B150E946515D8F3E894E0E0BB279B
S1132C409F57F0F02AED3FE049EC06C0EE0FBB0FB2
S1132C50661F771F881F28F0B23A6207730784073C
S1132C6028F0B25A620B730B840BE3959A9572F7B2
S1132C70803830F49A95BB0F661F771F881FD2F7F0
S1132C8090480C942F15EF93E0FF07C0A2EA2AEDB9
S1132C903FE049EC5FEB0E9499130E944C150F90A2
S1132CA0039401FC9058E4E5F0E00C9457169F93CC
S1132CB08F937F936F93FF93EF939B01AC010E94DB
S1132CC0A315EF91FF910E946B162F913F914F91A5
S1132CD05F910C94A315DF93CF931F930F93FF92EF
S1132CE0EF92DF927B018C01689406C0DA2EEF012B
S1132CF00E94B615FE01E894A59125913591459160
S1132D005591A6F3EF010E949913FE019701A801C2
S1132D10DA9469F7DF90EF90FF900F911F91CF91B4
S1132D20DF91089597FB072E16F4009407D077FDE2
S1132D3009D00E94B51607FC05D03EF49095819504
S1132D409F4F0895709561957F4F0895A29FB0019C
S1132D50B39FC001A39F700D811D1124911DB29FCB
S1132D60700D811D1124911D0895AA1BBB1B51E1F7
S1132D7007C0AA1FBB1FA617B70710F0A61BB70BE7
S1132D80881F991F5A95A9F780959095BC01CD018C
S1092D900895F894FFCF42
S10D2D96080701150C19070B32326F
S9030000FC
