:100000000C9439000C94400F0C94A20F0C94DC0F4C
:100010000C9456000C9456000C9456000C94560008
:100020000C9456000C9456000C9456000C94D40B6F
:100030000C9456000C9456000C9456000C945600E8
:100040000C9456000C9456000C9456000C945600D8
:100050000C94560005A84CCDB2D44EB93836A9023E
:100060000C50B9918688083CA6AAAA2ABE000000B6
:10007000803F11241FBECFE5D8E0DEBFCDBF10E02A
:10008000A0E6B0E0EEEAFAE202C005900D92A437D5
:10009000B107D9F720E0A4E7B0E001C01D92A6396E
:1000A000B207E1F70E946B0B0C9455150C940000FD
:1000B00011B888E480B984E886BF089594EA96BFB1
:1000C00006B607FEFDCF91B1987F983011F081B14F
:1000D000089590ED93B994E896BF06B607FEFDCF5C
:1000E00091B1987F983111F081B1089583B984E876
:1000F00086BF06B607FEFDCF81B1887F883211F03A
:1001000081B1089584E986BF80E0089594EA96BF9E
:1001100006B607FEFDCF91B1987F983011F081B1FE
:10012000089590ED93B994E896BF06B607FEFDCF0B
:1001300091B1987F983111F081B1089583B984E825
:1001400086BF06B607FEFDCF81B1887F8832A1F059
:1001500081B10895FB01E80FF11D908193B994E8F6
:1001600096BF06B607FEFDCF91B1987F983211F089
:1001700081B108958F5F01C080E0841758F384E94E
:1001800086BF80E00895DC0184EA86BF06B607FEDC
:10019000FDCF81B1887F8830C9F781ED83B984E8CC
:1001A00086BF06B607FEFDCF91B1987F9034C9F7A0
:1001B00020E00FC084EC86BF06B607FEFDCF91B1EC
:1001C000987F9035C9F7FD01E20FF11D83B180835F
:1001D0002F5FE22FF0E0462F50E041505109E41725
:1001E000F50744F384E886BF06B607FEFDCF91B15C
:1001F000987F9835C9F7862F90E00197A80FB91F0F
:1002000083B18C9384E986BF80E00895382F3F70D6
:10021000982F92959F70990F292F220F220F892FC7
:10022000820F830F08952DEC829F212D1124922F90
:10023000969596959695990F392F330F330F930F07
:10024000891B26952695269530E1239F800D112444
:100250000895CF93DF93CDE8D0E088818F770E9417
:10026000060190E0909372008093710089810E9452
:10027000060190E09093700080936F008091800061
:1002800090918100892B59F080918F008F710E948D
:10029000060190E090936E0080936D000AC08091FB
:1002A0008F008F730E94060190E090936E00809300
:1002B0006D00CDE8D0E08B810E94060190E0909324
:1002C0006C0080936B008C810E94060190E09093FB
:1002D0006A00809369008D810E94060190E09093EE
:1002E0006800809367008E810E94060190E09093E1
:1002F000660080936500DF91CF910895CF93DF93DF
:1003000080917100909172000E941301CDE8D0E0BD
:10031000888380916F00909170000E9413018983FF
:100320008091800090918100892B21F180916D0056
:1003300090916E000E9413014091800050918100C5
:100340000024569547950794569547950794542F42
:10035000402D2091630030916400220F331F2295BD
:100360003295307F3227207F3227842B282B209311
:100370008F0008C080916D0090916E000E94130163
:1003800080938F0080916B0090916C000E9413010C
:10039000CDE8D0E08B838091690090916A000E9443
:1003A00013018C8380916700909168000E94130173
:1003B0008D8380916500909166000E9413018E8369
:1003C00047E0BE0180E00E9486008FEC97E0019735
:1003D000F1F700C0000080E00E945E008FEC97E023
:1003E0000197F1F700C00000DF91CF91089581B32C
:1003F000837F81BB80E881BB8CE082BB87B38B7F2E
:1004000087BB84E088BB08954F925F926F927F9282
:100410008F929F92AF92BF92CF92DF92EF92FF9214
:100420000F931F93CF93DF93F82E8A01C62FD0E04E
:100430008EE090E08C1B9D0B6CE070E00E942D150F
:10044000072E000C880B990B0E9431130E946C132D
:100450004B015C01B80160547D4E80E090E00E9449
:100460002F13A50194010E9415122B013C0120E0DD
:1004700030E040E451E4C501B4010E943E144B0158
:100480005C01BE01DD0F880B990B0E943113A501A1
:1004900094010E94161220E030E040E450E40E94F3
:1004A00015124B015C016F2D70E080E090E00E941E
:1004B00031136B017C0120E030E049E153E4C501D8
:1004C000B4010E943E1420E030E040E050E40E947D
:1004D000161220E030E040EA50E40E9487120E94A9
:1004E0006C139B01AC01C701B6010E9416126B018F
:1004F0007C0120E030E846EB53E4C301B2010E94E6
:100500003E149B01AC01C701B6010E9416126B019B
:100510007C0120E030E040E85EE3C301B2010E94CC
:100520003E140E946C139B01AC01C701B6010E94EE
:1005300016126B017C0120E030E048EC52E4C3016C
:10054000B2010E9487120E946C139B01AC01C7018B
:10055000B6010E9415124B015C0120E030E048EC2E
:1005600053E4C301B2010E9487120E946C139B01E5
:10057000AC01C501B4010E94161220E03AE54AEF31
:1005800056E40E9415124B015C0124E634E54CE070
:100590005AE40E948212882354F420E036EA4AEF9B
:1005A00056E4C701B6010E9415124B015C01C5015A
:1005B000B401DF91CF911F910F91FF90EF90DF90E9
:1005C000CF90BF90AF909F908F907F906F905F90F3
:1005D0004F9008954F925F926F927F928F929F9269
:1005E000AF92BF92CF92DF92EF92FF92CF93DF93C1
:1005F000CDB7DEB766970FB6F894DEBF0FBECDBF9E
:100600006B017C015E8B4D8B23E33BE94AE954E4AB
:100610000E94871269837A838B839C839B01AC0140
:100620000E943E146D837E838F8398879B01AC016B
:1006300069817A818B819C810E943E146D877E87BF
:100640008F87988B25EA3EE34CEE51E4C701B60153
:100650000E943E1423EB36E643E15AE40E94161250
:100660004B015C0125E63BE047EF58E36D817E815D
:100670008F8198850E943E149B01AC01C501B40195
:100680000E9416124B015C0123E13EE646E254E370
:100690006D857E858F8598890E943E149B01AC01F3
:1006A000C501B4010E9415124B015C0128EB3EED1F
:1006B00044E053E469817A818B819C810E943E14DD
:1006C0002CE53FE846E253E40E9416122B013C0160
:1006D0002AE53AE446E15CE36D817E818F8198856D
:1006E0000E943E149B01AC01C301B2010E9415128D
:1006F00025E33AEF4EE85CE30E943E140E94AB14FF
:100700002AED33E04DEA59E30E943E149B01AC010F
:10071000C501B4010E941612698B7A8B8B8B9C8B5E
:1007200025EC37ED48EE51E4C701B6010E943E14B6
:1007300023EB3CE943EB53E40E9416124B015C01AE
:100740002AE93BEA4BE058E36D817E818F819885F1
:100750000E943E149B01AC01C501B4010E94151218
:100760004B015C0125E23EED48E656E36D857E8552
:100770008F8598890E943E149B01AC01C501B4018C
:100780000E94151269877A878B879C8721E938EE4A
:1007900040EC53E4C701B6010E943E142DE333E060
:1007A00049E953E40E9416124B015C0126E63FEC36
:1007B0004FE25CE36D817E818F8198850E943E14BB
:1007C0009B01AC01C501B4010E9416124B015C01F2
:1007D0002CEC3DE54FE457E36D857E858F85988948
:1007E0000E943E149B01AC01C501B4010E94161287
:1007F0002B013C0123ED35E543EC53E4C701B60181
:100800000E943E1427E03FE54AEA51E40E94161296
:100810006B017C0124EC32EA48ED5AE36D817E8164
:100820008F8198850E943E149B01AC01C701B601DF
:100830000E9415126B017C0123EE33E640E256E381
:100840006D857E858F8598890E943E149B01AC0141
:10085000C701B6010E9415126B017C0121E93BE042
:100860004EEC59E369817A818B819C810E943E1410
:100870009B01AC0165EC7FE881E39EE30E941512C9
:100880004B015C0125E33AEF4EE85CE369857A852C
:100890008B859C850E943E140E94AB149B01AC0189
:1008A000C501B4010E943E144B015C0125E33AEFFF
:1008B0004EE05DE369857A858B859C850E943E14B8
:1008C0000E94AB1427E230EA49E05BE30E943E1449
:1008D0009B01AC01C501B4010E9416124B015C01E1
:1008E00025E33AEF4EE85CE3C301B2010E943E14F7
:1008F0000E94AB1427E138E440ED5EE30E943E1411
:100900009B01AC01C501B4010E9415124B015C01B1
:1009100025E33AEF4EE05DE3C301B2010E943E14CD
:100920000E94AB1426E234EE43E85CE30E943E14DE
:100930009B01AC01C501B4010E9416124B015C0180
:1009400020E537E746E55DE3C301B2010E943E14AE
:100950000E94AB1427E137EB41ED59E30E943E14AE
:100960009B01AC01C501B4010E9415124B015C0151
:1009700025E33AEF4EE05DE3C701B6010E943E1465
:100980000E94AB1423EC34E64AE25CE30E943E147E
:100990009B01AC01C501B4010E9416124B015C0120
:1009A000A301920169857A858B859C850E94161228
:1009B00025E33AEF4EE85CE30E943E140E94AB143C
:1009C00027EE3DE147EA5BE30E943E149B01AC0148
:1009D000C501B4010E9415124B015C01A3019201F3
:1009E00069857A858B859C850E94151225E33AEFEF
:1009F0004EE85CE30E943E140E94AB1423EB3BE7FD
:100A000042EF5BE30E943E149B01AC01C501B401BF
:100A10000E9415124B015C01A7019601C701B601A6
:100A20000E9416126B017C019B01AC0169857A85DD
:100A30008B859C850E94161225E33AEF4EE85CE315
:100A40000E943E140E94AB1427E137EB41ED59E3BD
:100A50000E943E149B01AC01C501B4010E94161214
:100A60004B015C0129853A854B855C85C701B60140
:100A70000E94151225E33AEF4EE85CE30E943E1413
:100A80000E94AB1427E137EB41ED59E30E943E147D
:100A90009B01AC01C501B4010E9415124B015C0120
:100AA000A7019601C301B2010E94161225E33AEF95
:100AB0004EE85CE30E943E140E94AB1422E539E448
:100AC0004DE15AE30E943E149B01AC01C501B40103
:100AD0000E9415124B015C01A3019201C701B601EE
:100AE0000E94151225E33AEF4EE85CE30E943E14A3
:100AF0000E94AB142FE632E143E85AE30E943E1411
:100B00009B01AC01C501B4010E9416126B017C016E
:100B1000A3019201C301B2010E9416129B01AC0114
:100B200069857A858B859C850E94161225E33AEFAC
:100B30004EE85CE30E943E140E94AB142FE632E1C3
:100B400043E05AE30E943E149B01AC01C701B60189
:100B50000E9416126B017C0120E030E040E351EC72
:100B600069817A818B819C810E94821288230CF09A
:100B700051C026E530EF4BE55AE369817A818B81DC
:100B80009C810E943E142FE632E143E85AE30E9422
:100B900016124B015C0122E435E14DE659E36D810B
:100BA0007E818F8198850E943E149B01AC01C50116
:100BB000B4010E9416124B015C0129E734EC4DE0B0
:100BC00057E36D857E858F8598890E943E149B0131
:100BD000AC01C501B4010E9415124B015C0129E36F
:100BE00032EF4DEA53E369817A818B819C810E94C7
:100BF0003E149B01AC016D857E858F8598890E948E
:100C00003E149B01AC01C501B4010E9415124B01B9
:100C10005C0124C023EB3FEE4AE859E369817A8105
:100C20008B819C810E943E1427E830EC41E959E316
:100C30000E9415124B015C012BE03DE549E859E3A8
:100C40006D817E818F8198850E943E149B01AC014D
:100C5000C501B4010E9416124B015C01A701960167
:100C600069897A898B899C890E941612A501940151
:100C70000E94151220E030E040E05FE30E9416126F
:100C80006B017C018D899E8968E170E00E942D15C1
:100C9000072E000C880B990B0E9431139B01AC01AD
:100CA000C701B6010E9416120E946C1366960FB619
:100CB000F894DEBF0FBECDBFDF91CF91FF90EF90D4
:100CC000DF90CF90BF90AF909F908F907F906F906C
:100CD0005F904F9008954F925F926F927F928F92A4
:100CE0009F92AF92BF92CF92DF92EF92FF92CF93FB
:100CF000DF93CDB7DEB728970FB6F894DEBF0FBEEF
:100D0000CDBF5A0126E631EA45E15AE40E941512A8
:100D10006B017C01C50168E170E00E942D15072E72
:100D2000000C880B990B0E9431139B01AC01C70189
:100D3000B6010E94151220E03DEA4EE057E40E9401
:100D400087126B017C019B01AC010E943E144B0198
:100D50005C012DE03FE94CE057E4C701B6010E9479
:100D60003E142AEB33EC42EB53E40E9416122B01A3
:100D70003C0126E139E743E259E3C501B4010E9491
:100D80003E149B01AC01C301B2010E9415122B015C
:100D90003C0129E539ED40E055E3C701B6010E9469
:100DA0003E149B01AC01C501B4010E943E149B019D
:100DB000AC01C301B2010E9415122B013C0125ECCC
:100DC00030EA4CE057E4C701B6010E943E1425EB1F
:100DD0003BE34CE853E40E94161269837A838B83C9
:100DE0009C8321ED36EF4EE959E3C501B4010E9421
:100DF0003E149B01AC0169817A818B819C810E94A8
:100E0000161269837A838B839C832DEE37ED4DE92F
:100E10005BE3C701B6010E943E149B01AC016DE982
:100E200071E185EF9FE30E9415126D837E838F83AE
:100E300098872BE831EE4AE657E3C501B4010E94DA
:100E40003E149B01AC016D817E818F8198850E944B
:100E500015124B015C0125E33AEF4EE85CE3C30158
:100E6000B2010E943E140E94AB149B01AC01C5016B
:100E7000B4010E943E144B015C0126EF3FEC43EDB0
:100E800058E3C701B6010E943E149B01AC016CE51A
:100E900078EC83EA9CE30E9415126B017C0125E348
:100EA0003AEF4EE05DE3C301B2010E943E140E949E
:100EB000AB149B01AC01C701B6010E943E149B011B
:100EC000AC01C501B4010E9416126B017C0120E542
:100ED00037E746E55DE3C301B2010E943E140E947C
:100EE000AB1424E23BE048E959E30E943E149B0125
:100EF000AC01C701B6010E9416129B01AC016981C9
:100F00007A818B819C810E94161225E33AEF4EE88C
:100F10005CE30E943E146B017C012BED3FE049EC49
:100F200050E40E9487120E946C132BED3FE049ECC5
:100F300050E40E943E149B01AC01C701B6010E941F
:100F400015122BED3FE049E450E40E94871220E0A7
:100F500030E040EC50E40E943E140E946C1328964E
:100F60000FB6F894DEBF0FBECDBFDF91CF91FF90DB
:100F7000EF90DF90CF90BF90AF909F908F907F9039
:100F80006F905F904F9008958F929F92AF92BF9213
:100F9000CF92DF92EF92FF92CF93DF93EB01AC0100
:100FA0006CE08FE10E94040224EB36E643E15AE450
:100FB0000E94151225EA3EE34CEE51E40E9487128E
:100FC0000E946C134B015C01AE010E94EA026B01AE
:100FD0007C01AE010E946B0620E030E040E151E46C
:100FE0000E94391488236CF020E030E040E85FE391
:100FF000C501B4010E941512AE010E94EA026B0104
:101000007C01C701B601DF91CF91FF90EF90DF9097
:10101000CF90BF90AF909F908F9008952F923F9266
:101020004F925F926F927F928F929F92AF92BF92F8
:10103000CF92DF92EF92FF920F931F93CF93DF93A4
:10104000EA0124EB36E643E15AE40E94151225EA50
:101050003EE34CEE51E40E94871220E030E040E095
:101060005FE30E9416120E946C134B015C0120E0AA
:1010700030E040E85FE30E941612AE010E94EA02EF
:10108000AE010E946B06562E472E382E292E0F2EAB
:10109000C12CD12CF0E8EF2EFFE3FF2EF02D20E045
:1010A00030E040E85FE3C701B6010E9416126B0111
:1010B0007C019B01AC01C501B4010E941612AE0176
:1010C0000E94EA02AE010E946B06162F072F782EAF
:1010D000692E262F372F482F592F652D742D832DDC
:1010E000922D0E948212882371F0512E402E372CAF
:1010F000262C20E030E040E651E4C701B6010E9412
:101100008212882364F220E030E040E85FE3C70108
:10111000B6010E941512DF91CF911F910F91FF90A0
:10112000EF90DF90CF90BF90AF909F908F907F9087
:101130006F905F904F903F902F9008952F923F9225
:101140004F925F926F927F928F929F92AF92BF92D7
:10115000CF92DF92EF92FF920F931F93CF93DF9383
:10116000EA0119010E9404024B015C0124EB36E6FE
:1011700043E15AE40E94151225EA3EE34CEE51E4A5
:101180000E9487120E946C132B013C0120E030E08A
:1011900040E85FE30E941612A1010E94EA026B017F
:1011A0007C019B01AC01C501B4010E94821288231D
:1011B0003CF4A101C301B2010E94EA026B017C016F
:1011C000B101CE010E94C407162F072F782E692E79
:1011D000262F372F482F592FC701B6010E948212A0
:1011E000181694F0D0939500C0939400B101CE01ED
:1011F00001970E94C407C12FD02F572C462C162FC1
:10120000072F782E692E0DC0CE0101969093950080
:1012100080939400B1010E94C407C62FD72F582E87
:10122000492EA7019601C501B4010E94151220E0C4
:1012300030E040E85FE30E9416120E94F9127093BA
:10124000850060938400212F302F472D562DC70134
:10125000B6010E94151220E030E048EE51E40E94F1
:1012600087120E946C136B017C0120E030E040E3A8
:1012700051E40E9416120E94F91270938700609345
:101280008600212F302F472D562D6C2F7D2F852D39
:10129000942D0E94151220E030E846EB53E40E94A2
:1012A00039141816ECF4A101612F702F872D962D9B
:1012B0000E940E089B01AC01C701B6010E943914BF
:1012C000882374F020E030E040E251E4C701B60129
:1012D0000E9416120E94F912709387006093860094
:1012E00080918600909187000D974CF08091860048
:1012F000909187000C97909387008093860080914F
:101300008600909187000B979CF020E030E040E849
:1013100050E4C701B6010E94821288234CF48091E8
:10132000940090919500019790939500809394007C
:10133000DF91CF911F910F91FF90EF90DF90CF90B1
:10134000BF90AF909F908F907F906F905F904F90E5
:101350003F902F9008958FB9779BFECF0895CF933C
:10136000C62F98B39F7E98BB0E94AB098C2F0E941A
:10137000AB0988B3806188BBCF910895CF93C091AA
:1013800060006FE08C2F0E94AF09C150D1F7CF9160
:1013900008950F931F93CF93DF9380917400811171
:1013A00061C00E94BE0980916F0090917000CAE0F8
:1013B000D0E0BE010E942D15BC0188E090E00E94A3
:1013C000AF0980916F0090917000BE010E942D15B1
:1013D00087E090E00E94AF0980916D0090916E00CF
:1013E000BE010E942D15BC0186E090E00E94AF096D
:1013F00080916D0090916E00BE010E942D1585E0D8
:1014000090E00E94AF098091670090916800BE0152
:101410000E942D15BC0184E090E00E94AF098091EC
:10142000670090916800BE010E942D1583E090E056
:101430000E94AF098091690090916A00BE010E94EC
:101440002D15BC0182E090E00E94AF0980916900F7
:1014500090916A00BE010E942D1581E090E00E94EB
:10146000AF0928C180917400813009F076C00E94D4
:10147000BE09809182009091830008EE13E0B801CC
:101480000E942D15CAE0D0E0BE010E942D15BC01BE
:1014900088E090E00E94AF098091820090918300E3
:1014A000B8010E942D15BE010E942D15CB01BE0171
:1014B0000E942D15BC0187E090E00E94AF09809149
:1014C000820090918300B8010E942D1564E670E0BF
:1014D0000E942D15CB01BE010E942D15BC0186E096
:1014E00090E00E94AF098091820090918300B80142
:1014F0000E942D1585E090E00E94AF098091670061
:1015000090916800BE010E942D15BC0184E090E01E
:101510000E94AF098091670090916800BE010E940F
:101520002D1583E090E00E94AF09809169009091B1
:101530006A00BE010E942D15BC0182E090E00E946D
:10154000AF098091690090916A00BE010E942D153B
:1015500081E090E00E94AF09ADC0809174008230BC
:1015600009F076C00E94BE09809194009091950088
:1015700008EE13E0B8010E942D15CAE0D0E0BE01CC
:101580000E942D15BC0188E090E00E94AF09809177
:10159000940090919500B8010E942D15BE010E9403
:1015A0002D15CB01BE010E942D15BC0187E090E0F6
:1015B0000E94AF098091940090919500B8010E941B
:1015C0002D1564E670E00E942D15CB01BE010E942E
:1015D0002D15BC0186E090E00E94AF098091940037
:1015E00090919500B8010E942D1585E090E00E9431
:1015F000AF098091860090918700BE010E942D1551
:10160000BC0184E090E00E94AF0980918600909137
:101610008700BE010E942D1583E090E00E94AF0973
:101620008091840090918500BE010E942D15BC011F
:1016300082E090E00E94AF09809184009091850043
:10164000BE010E942D1581E090E00E94AF0932C0DA
:101650000E94BE0980917C0090917D00CAE0D0E09C
:10166000BE010E942D15BC0188E090E00E94AF09E8
:1016700080917C0090917D00BE010E942D1587E035
:1016800090E00E94AF0980917E0090917F00BE01A2
:101690000E942D15BC0186E090E00E94AF09809168
:1016A0007E0090917F00BE010E942D1585E090E0A4
:1016B0000E94AF09DF91CF911F910F91089585E0AE
:1016C00083BF81E089BF7894089515BE14BE80EE73
:1016D0008BBF7894089587B3806B87BB8DB182658B
:1016E0008DB967E08BE00E94AF0965E08AE00E9457
:1016F000AF0961E08CE00E94AF096FEF89E00E94C2
:10170000AF090E94F7010E945F0B0E94650B0E94C7
:10171000580067E08DE890E00E94C3000E94290114
:101720008FEC97E00197F1F700C000008091650011
:10173000909166008053984F90938300809382002D
:1017400020916100309162004091820050918300AD
:1017500060916700709168008091690090916A00C3
:101760000E949E080E94C90920916D0030916E0070
:1017700080917E0090917F0028173907B9F620915B
:101780006F003091700080917C0090917D0028174F
:10179000390761F680917600882341F20E94C909D9
:1017A00082B3806882BBC2CF1F920F920FB60F9296
:1017B00011240F931F932F933F934F935F936F9336
:1017C0007F938F939F93AF93BF93CF93DF93EF93C9
:1017D000FF9380917A0090917B00019690937B001B
:1017E00080937A008091780090917900019690938F
:1017F00079008093780080917A0090917B000A971D
:1018000028F18091770081111DC00E945E008FEC4D
:1018100097E00197F1F700C0000067E08DE890E0E5
:101820000E94C30080918D000E94060190E02091EB
:101830007100309172008217930721F00E942901F4
:101840000E94C90910927B0010927A008091780062
:10185000909179004E9708F4FEC2809178009091A3
:101860007900409708F454C080917500813009F0E8
:101870004FC08091740081114BC00E94BE098091BD
:101880006F0090917000CAE0D0E0BE010E942D155B
:10189000682F88E00E94AF0980916F0090917000DE
:1018A000BE010E942D1587E00E94AF0980916D0056
:1018B00090916E00BE010E942D15682F86E00E9457
:1018C000AF0980916D0090916E00BE010E942D15B0
:1018D00085E00E94AF098091670090916800BE0189
:1018E0000E942D15682F84E00E94AF098091670047
:1018F00090916800BE010E942D1583E00E94AF09FF
:101900006FE082E00E94AF096FE081E00E94AF09C2
:101910008091780090917900409708F454C08091AC
:101920007500823009F04FC08091740081114BC066
:101930000E94BE0980916F0090917000CAE0D0E0D3
:10194000BE010E942D15682F88E00E94AF0980918A
:101950006F0090917000BE010E942D1587E00E94DB
:10196000AF0980916D0090916E00BE010E942D150F
:10197000682F86E00E94AF0980916D0090916E0003
:10198000BE010E942D1585E00E94AF096FE084E042
:101990000E94AF096FE083E00E94AF098091690067
:1019A00090916A00BE010E942D15682F82E00E946E
:1019B000AF098091690090916A00BE010E942D15C7
:1019C00081E00E94AF098091780090917900409762
:1019D00008F454C080917500833009F04FC08091A5
:1019E000740081114BC00E94BE0980916F009091DC
:1019F0007000CAE0D0E0BE010E942D15682F88E07B
:101A00000E94AF0980916F0090917000BE010E940A
:101A10002D1587E00E94AF096FE086E00E94AF09B4
:101A20006FE085E00E94AF098091670090916800A7
:101A3000BE010E942D15682F84E00E94AF0980919D
:101A4000670090916800BE010E942D1583E00E94FE
:101A5000AF098091690090916A00BE010E942D1526
:101A6000682F82E00E94AF098091690090916A001E
:101A7000BE010E942D1581E00E94AF09809178007F
:101A800090917900409708F454C08091750084309B
:101A900009F04FC08091740081114BC00E94BE09B3
:101AA0006FE088E00E94AF096FE087E00E94AF0915
:101AB00080916D0090916E00CAE0D0E0BE010E945E
:101AC0002D15682F86E00E94AF0980916D009091DE
:101AD0006E00BE010E942D1585E00E94AF09809125
:101AE000670090916800BE010E942D15682F84E068
:101AF0000E94AF098091670090916800BE010E942A
:101B00002D1583E00E94AF098091690090916A00D1
:101B1000BE010E942D15682F82E00E94AF098091BE
:101B2000690090916A00BE010E942D1581E00E941B
:101B3000AF098091780090917900409708F46AC0CD
:101B400080917500813009F065C08091740081300A
:101B500009F060C00E94BE098091820090918300CC
:101B600008EE13E0B8010E942D15CAE0D0E0BE01D6
:101B70000E942D15682F88E00E94AF098091820095
:101B800090918300B8010E942D15BE010E942D1571
:101B9000CB01BE010E942D15682F87E00E94AF097E
:101BA0008091820090918300B8010E942D1564E617
:101BB00070E00E942D15CB01BE010E942D15682FEB
:101BC00086E00E94AF098091820090918300B80165
:101BD0000E942D1585E00E94AF09809167009091C9
:101BE0006800BE010E942D15682F84E00E94AF0995
:101BF0008091670090916800BE010E942D1583E0DE
:101C00000E94AF096FE082E00E94AF096FE081E0BF
:101C10000E94AF098091780090917900409708F474
:101C20006AC080917500823009F065C080917400AF
:101C3000813009F060C00E94BE09809182009091BD
:101C4000830008EE13E0B8010E942D15CAE0D0E031
:101C5000BE010E942D15682F88E00E94AF09809177
:101C6000820090918300B8010E942D15BE010E9450
:101C70002D15CB01BE010E942D15682F87E00E9413
:101C8000AF098091820090918300B8010E942D15C8
:101C900064E670E00E942D15CB01BE010E942D1557
:101CA000682F86E00E94AF098091820090918300A6
:101CB000B8010E942D1585E00E94AF096FE084E015
:101CC0000E94AF096FE083E00E94AF098091690034
:101CD00090916A00BE010E942D15682F82E00E943B
:101CE000AF098091690090916A00BE010E942D1594
:101CF00081E00E94AF09809178009091790040972F
:101D000008F447C080917500833009F042C080918B
:101D100074008130F1F50E94BE096FE088E00E94F6
:101D2000AF096FE087E00E94AF096FE086E00E9494
:101D3000AF096FE085E00E94AF0980916700909144
:101D40006800CAE0D0E0BE010E942D15682F84E033
:101D50000E94AF098091670090916800BE010E94C7
:101D60002D1583E00E94AF098091690090916A006F
:101D7000BE010E942D15682F82E00E94AF0980915C
:101D8000690090916A00BE010E942D1581E00E94B9
:101D9000AF098091780090917900409748F1809147
:101DA0007500813029F580917400833009F50E9417
:101DB000BE0980917C0090917D00CAE0D0E0BE0118
:101DC0000E942D15682F88E00E94AF0980917C0049
:101DD00090917D00BE010E942D1587E00E94AF0901
:101DE0006FE086E00E94AF096FE085E00E94AF09D6
:101DF0008091780090917900409748F1809175002A
:101E0000823029F580917400833009F50E94BE0963
:101E10006FE088E00E94AF096FE087E00E94AF09A1
:101E200080917E0090917F00CAE0D0E0BE010E94C8
:101E30002D15682F86E00E94AF0980917E00909159
:101E40007F00BE010E942D1585E00E94AF0910920F
:101E5000790010927800FF91EF91DF91CF91BF91BF
:101E6000AF919F918F917F916F915F914F913F9132
:101E70002F911F910F910F900FBE0F901F901895EB
:101E80001F920F920FB60F9211242F933F934F93EF
:101E90005F936F937F938F939F93AF93BF93EF93D2
:101EA000FF938091770081110BC0909174009F5F28
:101EB0009093740090917400943010F0109274001C
:101EC0009091740091110AC0882341F0109274001F
:101ED000109275000E947E0110927700809174002C
:101EE000813069F480917700882349F081E0809304
:101EF0007400109275000E947E011092770080910C
:101F00007400833071F480917700882351F083E06E
:101F1000809374001092750081E080937600109297
:101F20007700FF91EF91BF91AF919F918F917F913A
:101F30006F915F914F913F912F910F900FBE0F9036
:101F40001F9018951F920F920FB60F9211248F9326
:101F500081E080937700809175008F5F809375009A
:101F600080917400811108C080917500853020F047
:101F7000109275001092770080917400813041F4C6
:101F800080917500843020F01092750010927700D7
:101F900080917400833051F480917500833030F06B
:101FA0001092750010927600109277008F910F902A
:101FB0000FBE0F901F9018951F920F920FB60F92A1
:101FC00011242F933F938F939F93809176008823C2
:101FD00039F080917700811103C01092760012BA17
:101FE00080917700882309F4FDC0909174009111CD
:101FF000F9C090917500913009F0A5C02091690059
:1020000030916A002F5F3F4F30936A002093690040
:10201000209167003091680024303105A9F02091AB
:102020006700309168002630310571F0209167001B
:10203000309168002930310539F0209167003091E6
:1020400068002B30310579F42091690030916A00E5
:102050002F3131050CF4C6C021E030E030936A0026
:1020600020936900BFC02091670030916800213043
:10207000310551F12091670030916800233031051E
:1020800019F1209167003091680025303105E1F0A9
:10209000209167003091680027303105A9F0209128
:1020A0006700309168002830310571F02091670099
:1020B000309168002A30310539F020916700309165
:1020C00068002C30310579F42091690030916A0064
:1020D000203231050CF486C021E030E030936A00F4
:1020E000209369007FC020918200309183002D5F92
:1020F0003F4F27303105C0F420918200309183009A
:1021000021573E4F2F31334078F4209169003091B0
:102110006A002E3131050CF465C021E030E03093C7
:102120006A00209369005EC02091690030916A00C6
:102130002D3131050CF456C021E030E030936A00B7
:10214000209369004FC0909175009230C1F42091A6
:102150006700309168002F5F3F4F309368002093F5
:10216000670020916700309168002D303105D4F16F
:1021700021E030E0309368002093670033C09091F5
:1021800075009330B1F420916D0030916E002F5F97
:102190003F4F30936E0020936D0020916D00309181
:1021A0006E0028313105F4F010926E0010926D002F
:1021B00019C0909175009430A9F420916F0030916E
:1021C00070002F5F3F4F3093700020936F0020917D
:1021D0006F00309170002C33310524F010927000A4
:1021E00010926F00882309F4E3C09091740091303D
:1021F00009F0DEC090917500913009F0A4C02091E3
:10220000690030916A002F5F3F4F30936A0020933E
:102210006900209167003091680024303105A9F0F1
:1022200020916700309168002630310571F02091CF
:102230006700309168002930310539F0209167003E
:10224000309168002B30310579F42091690030918C
:102250006A002F3131050CF4ABC021E030E030933F
:102260006A0020936900A4C0209167003091680043
:102270002130310551F12091670030916800233001
:10228000310519F120916700309168002530310542
:10229000E1F0209167003091680027303105A9F006
:1022A00020916700309168002830310571F020914D
:1022B0006700309168002A30310539F020916700BD
:1022C000309168002C30310579F42091690030910B
:1022D0006A00203231050CF46BC021E030E030930D
:1022E0006A002093690064C02091820030918300CD
:1022F0002D5F3F4F27303105C0F42091820030918F
:10230000830021573E4F2F31334078F420916900EC
:1023100030916A002E3131050CF44AC021E030E0E2
:1023200030936A002093690043C020916900309186
:102330006A002D313105E4F121E030E030936A008C
:102340002093690035C0909175009230C1F42091BE
:102350006700309168002F5F3F4F309368002093F3
:10236000670020916700309168002D30310504F13D
:1023700021E030E0309368002093670019C090910D
:1023800075009330A9F420916500309166002F5FAD
:102390003F4F309366002093650020916500309197
:1023A00066002436310524F0109266001092650014
:1023B000882391F180917400833071F580917500CC
:1023C000813099F480917E0090917F0001969093E6
:1023D0007F0080937E0080917E0090917F004897DF
:1023E00024F010927F0010927E0080917500823060
:1023F00099F480917C0090917D00019690937D00EE
:1024000080937C0080917C0090917D00CC9724F09B
:1024100010927D0010927C009F918F913F912F919F
:102420000F900FBE0F901F9018955058BB27AA27EA
:102430000E942D120C94E7130E94D91338F00E94C9
:10244000E01320F039F49F3F19F426F40C94D613CE
:102450000EF4E095E7FB0C94A713E92F0E94F81304
:1024600058F3BA17620773078407950720F079F4C9
:10247000A6F50C9432140EF4E0950B2EBA2FA02D75
:102480000B01B90190010C01CA01A0011124FF2721
:10249000591B99F0593F50F4503E68F11A16F0401C
:1024A000A22F232F342F4427585FF3CF469537951B
:1024B0002795A795F0405395C9F77EF41F16BA0BE0
:1024C000620B730B840BBAF09150A1F0FF0FBB1F8E
:1024D000661F771F881FC2F70EC0BA0F621F731FD7
:1024E000841F48F4879577956795B795F7959E3F34
:1024F00008F0B0CF9395880F08F09927EE0F9795C5
:10250000879508950E94831308F481E008950E943E
:102510009B120C94E7130E94E01358F00E94D91309
:1025200040F029F45F3F29F00C94A71351110C944B
:1025300033140C94D6130E94F81368F39923B1F363
:10254000552391F3951B550BBB27AA2762177307D9
:10255000840738F09F5F5F4F220F331F441FAA1F6D
:10256000A9F335D00E2E3AF0E0E832D09150504029
:10257000E695001CCAF72BD0FE2F29D0660F771FD7
:10258000881FBB1F261737074807AB07B0E809F0BD
:10259000BB0B802DBF01FF2793585F4F3AF09E3F42
:1025A000510578F00C94A7130C9433145F3FE4F3B7
:1025B000983ED4F3869577956795B795F7959F5F85
:1025C000C9F7880F911D9695879597F90895E1E0D1
:1025D000660F771F881FBB1F621773078407BA0730
:1025E00020F0621B730B840BBA0BEE1F88F7E0958B
:1025F00008950E9400136894B1110C943314089547
:102600000E94001488F09F5798F0B92F9927B7516E
:10261000B0F0E1F0660F771F881F991F1AF0BA9586
:10262000C9F714C0B13091F00E943214B1E008959E
:102630000C943214672F782F8827B85F39F0B93F90
:10264000CCF3869577956795B395D9F73EF4909539
:102650008095709561957F4F8F4F9F4F0895E894B7
:1026600009C097FB3EF490958095709561957F4FDA
:102670008F4F9F4F9923A9F0F92F96E9BB27939588
:10268000F695879577956795B795F111F8CFFAF498
:10269000BB0F11F460FF1BC06F5F7F4F8F4F9F4FC9
:1026A00016C0882311F096E911C0772321F09EE827
:1026B000872F762F05C0662371F096E8862F70E08D
:1026C00060E02AF09A95660F771F881FDAF7880F67
:1026D0009695879597F908950E941A1490F09F3760
:1026E00048F4911116F00C94331460E070E080E827
:1026F0009FEB089526F41B16611D711D811D0C941E
:10270000AD130C94C813990F0008550FAA0BE0E8FD
:10271000FEEF16161706E807F907C0F012161306A3
:10272000E407F50798F0621B730B840B950B39F4E3
:102730000A2661F0232B242B252B21F408950A2649
:1027400009F4A140A6958FEF811D811D089597F989
:102750009F6780E870E060E00895882371F4772334
:1027600021F09850872B762F07C0662311F4992704
:102770000DC09051862B70E060E02AF09A95660FAC
:10278000771F881FDAF7880F9695879597F9089530
:102790009F3F31F0915020F4879577956795B795D5
:1027A000880F911D9695879597F908959FEF80EC76
:1027B000089500240A9416161706180609060895A7
:1027C00000240A9412161306140605060895092E0D
:1027D0000394000C11F4882352F0BB0F40F4BF2B7C
:1027E00011F460FF04C06F5F7F4F8F4F9F4F0895BC
:1027F00057FD9058440F551F59F05F3F71F04795B2
:10280000880F97FB991F61F09F3F79F08795089596
:10281000121613061406551FF2CF4695F1DF08C0B5
:10282000161617061806991FF1CF869571056105D2
:10283000089408950E940014A0F0BEE7B91788F428
:10284000BB279F3860F41616B11D672F782F882795
:10285000985FF7CF869577956795B11D93959639D3
:10286000C8F30895E894BB2766277727CB0197F92B
:1028700008950E94831308F48FEF08950E94511465
:102880000C94E7130E94D91338F00E94E01320F053
:10289000952311F00C94A7130C94D61311240C94C7
:1028A00033140E94F81370F3959FC1F3950F50E015
:1028B000551F629FF001729FBB27F00DB11D639FF2
:1028C000AA27F00DB11DAA1F649F6627B00DA11D98
:1028D000661F829F2227B00DA11D621F739FB00D3E
:1028E000A11D621F839FA00D611D221F749F3327AE
:1028F000A00D611D231F849F600D211D822F762F47
:102900006A2F11249F5750409AF0F1F088234AF023
:10291000EE0FFF1FBB1F661F771F881F915050408F
:10292000A9F79E3F510580F00C94A7130C94331423
:102930005F3FE4F3983ED4F3869577956795B79516
:10294000F795E7959F5FC1F7FE2B880F911D969530
:10295000879597F908959F930E94B5140F9007FCEF
:10296000EE5F0C94DE140C94D6130E940014D8F37E
:10297000E894E0E0BB279F57F0F02AED3FE049ECF8
:1029800006C0EE0FBB0F661F771F881F28F0B23AF4
:1029900062077307840728F0B25A620B730B840B2B
:1029A000E3959A9572F7803830F49A95BB0F661FBD
:1029B000771F881FD2F790480C94CA13EF93E0FF5B
:1029C00007C0A2EA2AED3FE049EC5FEB0E942D121E
:1029D0000E94E7130F90039401FC9058E4E5F0E0A7
:1029E0000C94F2149F938F937F936F93FF93EF93C5
:1029F0009B01AC010E943E14EF91FF910E940615CD
:102A00002F913F914F915F910C943E14DF93CF93A0
:102A10001F930F93FF92EF92DF927B018C016894DA
:102A200006C0DA2EEF010E945114FE01E894A59130
:102A30002591359145915591A6F3EF010E942D12F4
:102A4000FE019701A801DA9469F7DF90EF90FF90FB
:102A50000F911F91CF91DF91089597FB072E16F4E8
:102A6000009407D077FD09D00E94411507FC05D0DE
:102A70003EF4909581959F4F0895709561957F4F95
:102A80000895AA1BBB1B51E107C0AA1FBB1FA617B5
:102A9000B70710F0A61BB70B881F991F5A95A9F707
:0E2AA00080959095BC01CD010895F894FFCF6C
:102AAE00080700010015000C000600020017003B8D
:042ABE0000320000E2
:00000001FF
