:100000000C9439000C941F0F0C94830F0C94C50FA3
:100010000C9456000C9456000C9456000C94560008
:100020000C9456000C9456000C9456000C94CC0B77
:100030000C9456000C9456000C9456000C945600E8
:100040000C9456000C9456000C9456000C945600D8
:100050000C94560005A84CCDB2D44EB93836A9023E
:100060000C50B9918688083CA6AAAA2ABE000000B6
:10007000803F11241FBECFE5D8E0DEBFCDBF10E02A
:10008000A0E6B0E0E2E1F9E202C005900D92A437EB
:10009000B107D9F720E0A4E7B0E001C01D92A5396F
:1000A000B207E1F70E945D0B0C9487140C940000DA
:1000B00011B888E480B984E886BF089594EA96BFB1
:1000C00006B607FEFDCF91B1987F983011F081B14F
:1000D000089590ED93B994E896BF06B607FEFDCF5C
:1000E00091B1987F983111F081B1089583B984E876
:1000F00086BF06B607FEFDCF81B1887F883211F03A
:1001000081B1089584E986BF80E0089594EA96BF9E
:1001100006B607FEFDCF91B1987F983011F081B1FE
:10012000089590ED93B994E896BF06B607FEFDCF0B
:1001300091B1987F983111F081B1089583B984E825
:1001400086BF06B607FEFDCF81B1887F8832A1F059
:1001500081B10895FB01E80FF11D908193B994E8F6
:1001600096BF06B607FEFDCF91B1987F983211F089
:1001700081B108958F5F01C080E0841758F384E94E
:1001800086BF80E00895DC0184EA86BF06B607FEDC
:10019000FDCF81B1887F8830C9F781ED83B984E8CC
:1001A00086BF06B607FEFDCF91B1987F9034C9F7A0
:1001B00020E00FC084EC86BF06B607FEFDCF91B1EC
:1001C000987F9035C9F7FD01E20FF11D83B180835F
:1001D0002F5FE22FF0E0462F50E041505109E41725
:1001E000F50744F384E886BF06B607FEFDCF91B15C
:1001F000987F9835C9F7862F90E00197A80FB91F0F
:1002000083B18C9384E986BF80E00895382F3F70D6
:10021000982F92959F70990F292F220F220F892FC7
:10022000820F830F08952DEC829F212D1124922F90
:10023000969596959695990F392F330F330F930F07
:10024000891B26952695269530E1239F800D112444
:100250000895CF93DF93CCE8D0E088818F770E9418
:10026000060190E0909372008093710089810E9452
:10027000060190E09093700080936F0080917F0062
:1002800090918000892B59F080918E008F710E948F
:10029000060190E090936E0080936D000AC08091FB
:1002A0008E008F730E94060190E090936E00809301
:1002B0006D00CCE8D0E08B810E94060190E0909325
:1002C0006C0080936B008C810E94060190E09093FB
:1002D0006A00809369008D810E94060190E09093EE
:1002E0006800809367008E810E94060190E09093E1
:1002F000660080936500DF91CF910895CF93DF93DF
:1003000080917100909172000E941301CCE8D0E0BE
:10031000888380916F00909170000E9413018983FF
:1003200080917F0090918000892B21F180916D0058
:1003300090916E000E94130140917F0050918000C7
:100340000024569547950794569547950794542F42
:10035000402D2091630030916400220F331F2295BD
:100360003295307F3227207F3227842B282B209311
:100370008E0008C080916D0090916E000E94130164
:1003800080938E0080916B0090916C000E9413010D
:10039000CCE8D0E08B838091690090916A000E9444
:1003A00013018C8380916700909168000E94130173
:1003B0008D8380916500909166000E9413018E8369
:1003C00047E0BE0180E00E9486008FEC97E0019735
:1003D000F1F700C0000080E00E945E008FEC97E023
:1003E0000197F1F700C00000DF91CF91089581B32C
:1003F000807881BB81B3806881BB82B38F6782BB09
:1004000008954F925F926F927F928F929F92AF92D8
:10041000BF92CF92DF92EF92FF920F931F93CF93F1
:10042000DF93F82E8A01C62FD0E08EE090E08C1B7F
:100430009D0B6CE070E00E945F14072E000C880B8F
:10044000990B0E9463120E949E124B015C01B8013D
:1004500060547D4E80E090E00E946112A5019401FD
:100460000E9447112B013C0120E030E040E451E4C0
:10047000C501B4010E9470134B015C01BE01DD0F88
:10048000880B990B0E946312A50194010E944811E8
:1004900020E030E040E450E40E9447114B015C0151
:1004A0006F2D70E080E090E00E9463126B017C0190
:1004B00020E030E049E153E4C501B4010E9470132B
:1004C00020E030E040E050E40E94481120E030E0BD
:1004D00040EA50E40E94B9110E949E129B01AC01B7
:1004E000C701B6010E9448116B017C0120E030E891
:1004F00046EB53E4C301B2010E9470139B01AC01AF
:10050000C701B6010E9448116B017C0120E030E078
:1005100040E85EE3C301B2010E9470130E949E1284
:100520009B01AC01C701B6010E9448116B017C011F
:1005300020E030E048EC52E4C301B2010E94B9115E
:100540000E949E129B01AC01C701B6010E94471197
:100550004B015C0120E030E048EC53E4C301B20100
:100560000E94B9110E949E129B01AC01C501B40109
:100570000E94481120E03AE54AEF56E40E944711F4
:100580004B015C0124E634E54CE05AE40E94B411CE
:10059000882354F420E036EA4AEF56E4C701B60156
:1005A0000E9447114B015C01C501B401DF91CF915D
:1005B0001F910F91FF90EF90DF90CF90BF90AF9081
:1005C0009F908F907F906F905F904F9008954F9283
:1005D0005F926F927F928F929F92AF92BF92CF92D3
:1005E000DF92EF92FF92CF93DF93CDB7DEB766979E
:1005F0000FB6F894DEBF0FBECDBF6B017C015E8BE2
:100600004D8B23E33BE94AE954E40E94B911698325
:100610007A838B839C839B01AC010E9470136D8352
:100620007E838F8398879B01AC0169817A818B815E
:100630009C810E9470136D877E878F87988B25EA37
:100640003EE34CEE51E4C701B6010E94701323EB68
:1006500036E643E15AE40E9448114B015C0125E66D
:100660003BE047EF58E36D817E818F8198850E9442
:1006700070139B01AC01C501B4010E9448114B01EC
:100680005C0123E13EE646E254E36D857E858F857D
:1006900098890E9470139B01AC01C501B4010E94AE
:1006A00047114B015C0128EB3EED44E053E46981C6
:1006B0007A818B819C810E9470132CE53FE846E291
:1006C00053E40E9448112B013C012AE53AE446E13B
:1006D0005CE36D817E818F8198850E9470139B0100
:1006E000AC01C301B2010E94471125E33AEF4EE885
:1006F0005CE30E9470130E94DD132AED33E04DEAA3
:1007000059E30E9470139B01AC01C501B4010E9422
:100710004811698B7A8B8B8B9C8B25EC37ED48EEDF
:1007200051E4C701B6010E94701323EB3CE943EB8F
:1007300053E40E9448114B015C012AE93BEA4BE07B
:1007400058E36D817E818F8198850E9470139B0193
:10075000AC01C501B4010E9447114B015C0125E2C7
:100760003EED48E656E36D857E858F8598890E942B
:1007700070139B01AC01C501B4010E944711698748
:100780007A878B879C8721E938EE40EC53E4C701D8
:10079000B6010E9470132DE333E049E953E40E944F
:1007A00048114B015C0126E63FEC4FE25CE36D81B2
:1007B0007E818F8198850E9470139B01AC01C501D9
:1007C000B4010E9448114B015C012CEC3DE54FE463
:1007D00057E36D857E858F8598890E9470139B01F4
:1007E000AC01C501B4010E9448112B013C0123ED6D
:1007F00035E543EC53E4C701B6010E94701327E0CE
:100800003FE54AEA51E40E9448116B017C0124EC67
:1008100032EA48ED5AE36D817E818F8198850E948E
:1008200070139B01AC01C701B6010E9447116B0117
:100830007C0123EE33E640E256E36D857E858F85AD
:1008400098890E9470139B01AC01C701B6010E94F8
:1008500047116B017C0121E93BE04EEC59E36981D2
:100860007A818B819C810E9470139B01AC0165ECA5
:100870007FE881E39EE30E9447114B015C0125E381
:100880003AEF4EE85CE369857A858B859C850E940A
:1008900070130E94DD139B01AC01C501B4010E94DD
:1008A00070134B015C0125E33AEF4EE05DE369858F
:1008B0007A858B859C850E9470130E94DD1327E248
:1008C00030EA49E05BE30E9470139B01AC01C50173
:1008D000B4010E9448114B015C0125E33AEF4EE858
:1008E0005CE3C301B2010E9470130E94DD1327E193
:1008F00038E440ED5EE30E9470139B01AC01C5013A
:10090000B4010E9447114B015C0125E33AEF4EE030
:100910005DE3C301B2010E9470130E94DD1326E261
:1009200034EE43E85CE30E9470139B01AC01C50107
:10093000B4010E9448114B015C0120E537E746E510
:100940005DE3C301B2010E9470130E94DD1327E131
:1009500037EB41ED59E30E9470139B01AC01C501D7
:10096000B4010E9447114B015C0125E33AEF4EE0D0
:100970005DE3C701B6010E9470130E94DD1323ECF2
:1009800034E64AE25CE30E9470139B01AC01C501AE
:10099000B4010E9448114B015C01A30192016985D9
:1009A0007A858B859C850E94481125E33AEF4EE8B5
:1009B0005CE30E9470130E94DD1327EE3DE147EADD
:1009C0005BE30E9470139B01AC01C501B4010E945E
:1009D00047114B015C01A301920169857A858B85E2
:1009E0009C850E94471125E33AEF4EE85CE30E94A4
:1009F00070130E94DD1323EB3BE742EF5BE30E94A1
:100A000070139B01AC01C501B4010E9447114B0159
:100A10005C01A7019601C701B6010E9448116B0154
:100A20007C019B01AC0169857A858B859C850E9440
:100A3000481125E33AEF4EE85CE30E9470130E94F0
:100A4000DD1327E137EB41ED59E30E9470139B0161
:100A5000AC01C501B4010E9448114B015C0129851C
:100A60003A854B855C85C701B6010E94471125E395
:100A70003AEF4EE85CE30E9470130E94DD1327E119
:100A800037EB41ED59E30E9470139B01AC01C501A6
:100A9000B4010E9447114B015C01A7019601C301FB
:100AA000B2010E94481125E33AEF4EE85CE30E9450
:100AB00070130E94DD1322E539E44DE15AE30E94F0
:100AC00070139B01AC01C501B4010E9447114B0199
:100AD0005C01A3019201C701B6010E94471125E301
:100AE0003AEF4EE85CE30E9470130E94DD132FE69C
:100AF00032E143E85AE30E9470139B01AC01C50147
:100B0000B4010E9448116B017C01A3019201C30151
:100B1000B2010E9448119B01AC0169857A858B85E1
:100B20009C850E94481125E33AEF4EE85CE30E9461
:100B300070130E94DD132FE632E143E05AE30E9476
:100B400070139B01AC01C701B6010E9448116B01F3
:100B50007C0120E030E040E351EC69817A818B81B7
:100B60009C810E94B41188230CF051C026E530EF1F
:100B70004BE55AE369817A818B819C810E947013D5
:100B80002FE632E143E85AE30E9448114B015C0131
:100B900022E435E14DE659E36D817E818F819885B0
:100BA0000E9470139B01AC01C501B4010E94481161
:100BB0004B015C0129E734EC4DE057E36D857E8500
:100BC0008F8598890E9470139B01AC01C501B40107
:100BD0000E9447114B015C0129E332EF4DEA53E3D8
:100BE00069817A818B819C810E9470139B01AC0189
:100BF0006D857E858F8598890E9470139B01AC015D
:100C0000C501B4010E9447114B015C0124C023EBD4
:100C10003FEE4AE859E369817A818B819C810E9489
:100C2000701327E830EC41E959E30E9447114B016A
:100C30005C012BE03DE549E859E36D817E818F81C0
:100C400098850E9470139B01AC01C501B4010E94FC
:100C500048114B015C01A701960169897A898B894A
:100C60009C890E944811A50194010E94471120E02F
:100C700030E040E05FE30E9448116B017C018D8908
:100C80009E8968E170E00E945F14072E000C880BBB
:100C9000990B0E9463129B01AC01C701B6010E942F
:100CA00048110E949E1266960FB6F894DEBF0FBEE2
:100CB000CDBFDF91CF91FF90EF90DF90CF90BF90AD
:100CC000AF909F908F907F906F905F904F9008951E
:100CD0004F925F926F927F928F929F92AF92BF924C
:100CE000CF92DF92EF92FF92CF93DF93CDB7DEB733
:100CF00028970FB6F894DEBF0FBECDBF5A0126E687
:100D000031EA45E15AE40E9447116B017C01C501BB
:100D100068E170E00E945F14072E000C880B990BAD
:100D20000E9463129B01AC01C701B6010E944711EA
:100D300020E03DEA4EE057E40E94B9116B017C01CE
:100D40009B01AC010E9470134B015C012DE03FE957
:100D50004CE057E4C701B6010E9470132AEB33EC54
:100D600042EB53E40E9448112B013C0126E139E794
:100D700043E259E3C501B4010E9470139B01AC0129
:100D8000C301B2010E9447112B013C0129E539ED55
:100D900040E055E3C701B6010E9470139B01AC010E
:100DA000C501B4010E9470139B01AC01C301B201E3
:100DB0000E9447112B013C0125EC30EA4CE057E43E
:100DC000C701B6010E94701325EB3BE34CE853E4E6
:100DD0000E94481169837A838B839C8321ED36EFCF
:100DE0004EE959E3C501B4010E9470139B01AC01A7
:100DF00069817A818B819C810E94481169837A8301
:100E00008B839C832DEE37ED4DE95BE3C701B60183
:100E10000E9470139B01AC016DE971E185EF9FE3C6
:100E20000E9447116D837E838F8398872BE831EE74
:100E30004AE657E3C501B4010E9470139B01AC015F
:100E40006D817E818F8198850E9447114B015C01E5
:100E500025E33AEF4EE85CE3C301B2010E94701350
:100E60000E94DD139B01AC01C501B4010E94701307
:100E70004B015C0126EF3FEC43ED58E3C701B6019F
:100E80000E9470139B01AC016CE578EC83EA9CE353
:100E90000E9447116B017C0125E33AEF4EE05DE3D0
:100EA000C301B2010E9470130E94DD139B01AC01CB
:100EB000C701B6010E9470139B01AC01C501B401CA
:100EC0000E9448116B017C0120E537E746E55DE3B0
:100ED000C301B2010E9470130E94DD1324E23BE0C3
:100EE00048E959E30E9470139B01AC01C701B601A8
:100EF0000E9448119B01AC0169817A818B819C81A0
:100F00000E94481125E33AEF4EE85CE30E9470131B
:100F10006B017C012BED3FE049EC50E40E94B911DC
:100F20000E949E122BED3FE049EC50E40E947013AA
:100F30009B01AC01C701B6010E9447112BED3FE0B8
:100F400049E450E40E94B91120E030E040EC50E464
:100F50000E9470130E949E1228960FB6F894DEBF6E
:100F60000FBECDBFDF91CF91FF90EF90DF90CF907C
:100F7000BF90AF909F908F907F906F905F904F90B9
:100F800008958F929F92AF92BF92CF92DF92EF928D
:100F9000FF92CF93DF93EB01AC016CE08FE10E94F5
:100FA000010224EB36E643E15AE40E94471125EAA8
:100FB0003EE34CEE51E40E94B9110E949E124B0197
:100FC0005C01AE010E94E7026B017C01AE010E9450
:100FD000680620E030E040E151E40E946B13882372
:100FE0006CF020E030E040E85FE3C501B4010E940E
:100FF0004711AE010E94E7026B017C01C701B601F7
:10100000DF91CF91FF90EF90DF90CF90BF90AF90A6
:101010009F908F9008952F923F924F925F926F9280
:101020007F928F929F92AF92BF92CF92DF92EF9278
:10103000FF920F931F93CF93DF93EA0124EB36E6E1
:1010400043E15AE40E94471125EA3EE34CEE51E4A5
:101050000E94B91120E030E040E05FE30E944811B7
:101060000E949E124B015C0120E030E040E85FE30B
:101070000E944811AE010E94E702AE010E9468067C
:10108000562E472E382E292E0F2EC12CD12CF0E8AB
:10109000EF2EFFE3FF2EF02D20E030E040E85FE38D
:1010A000C701B6010E9448116B017C019B01AC0194
:1010B000C501B4010E944811AE010E94E702AE01D1
:1010C0000E946806162F072F782E692E262F372F9D
:1010D000482F592F652D742D832D922D0E94B41108
:1010E000882371F0512E402E372C262C20E030E042
:1010F00040E651E4C701B6010E94B411882364F2AE
:1011000020E030E040E85FE3C701B6010E944711EC
:10111000DF91CF911F910F91FF90EF90DF90CF90D3
:10112000BF90AF909F908F907F906F905F904F9007
:101130003F902F9008952F923F924F925F926F921F
:101140007F928F929F92AF92BF92CF92DF92EF9257
:10115000FF920F931F93CF93DF93EA0119010E942F
:1011600001024B015C0124EB36E643E15AE40E94A4
:10117000471125EA3EE34CEE51E40E94B9110E946A
:101180009E122B013C0120E030E040E85FE30E942A
:101190004811A1010E94E7026B017C019B01AC0197
:1011A000C501B4010E94B41188233CF4A101C3011C
:1011B000B2010E94E7026B017C01B101CE010E94E5
:1011C000C107162F072F782E692E262F372F482F6D
:1011D000592FC701B6010E94B411181694F0D0938C
:1011E0009400C0939300B101CE0101970E94C10702
:1011F000C12FD02F572C462C162F072F782E692E53
:101200000DC0CE0101969093940080939300B1019C
:101210000E94C107C62FD72F582E492EA70196012D
:10122000C501B4010E94471120E030E040E85FE3CF
:101230000E9448110E942B127093840060938300D7
:10124000212F302F472D562DC701B6010E9447117F
:1012500020E030E048EE51E40E94B9110E949E1255
:101260006B017C0120E030E040E351E40E94481132
:101270000E942B127093860060938500212F302FDF
:10128000472D562D6C2F7D2F852D942D0E944711B3
:1012900020E030E846EB53E40E946B131816ECF4A0
:1012A000A101612F702F872D962D0E940B089B01A5
:1012B000AC01C701B6010E946B13882374F020E0D3
:1012C00030E040E251E4C701B6010E9448110E949B
:1012D0002B12709386006093850080918500909119
:1012E00086000D974CF080918500909186000C97B8
:1012F0009093860080938500809185009091860070
:101300000B979CF020E030E040E850E4C701B601C4
:101310000E94B41188234CF4809193009091940022
:1013200001979093940080939300DF91CF911F9148
:101330000F91FF90EF90DF90CF90BF90AF909F9074
:101340008F907F906F905F904F903F902F90089577
:101350008FB9779BFECF0895CF93C62F98B39F7E0A
:1013600098BB0E94A8098C2F0E94A80988B38061AD
:1013700088BBCF910895CF93C09160006FE08C2F10
:101380000E94AC09C150D1F7CF9108950F931F93DC
:10139000CF93DF9380917400811156C00E94BB09E6
:1013A0006FE070E088E090E00E94AC096FE070E0D0
:1013B00087E090E00E94AC098091710090917200EA
:1013C000CAE0D0E0BE010E945F14BC0186E090E05C
:1013D0000E94AC098091710090917200BE010E9440
:1013E0005F1485E090E00E94AC0980916F009091BD
:1013F0007000BE010E945F14BC0184E090E00E9476
:10140000AC0980916F0090917000BE010E945F1442
:1014100083E090E00E94AC0980916D0090916E0095
:10142000BE010E945F14BC0182E090E00E94AC0902
:1014300080916D0090916E00BE010E945F1481E06A
:1014400090E00E94AC0928C180917400813009F0BD
:1014500076C00E94BB09809181009091820008EEC5
:1014600013E0B8010E945F14CAE0D0E0BE010E9400
:101470005F14BC0188E090E00E94AC09809181007B
:1014800090918200B8010E945F14BE010E945F1417
:10149000CB01BE010E945F14BC0187E090E00E9476
:1014A000AC098091810090918200B8010E945F1484
:1014B00064E670E00E945F14CB01BE010E945F14DD
:1014C000BC0186E090E00E94AC098091810090917F
:1014D0008200B8010E945F1485E090E00E94AC0990
:1014E0008091670090916800BE010E945F14BC016A
:1014F00084E090E00E94AC098091670090916800C0
:10150000BE010E945F1483E090E00E94AC098091CC
:10151000690090916A00BE010E945F14BC0182E0E4
:1015200090E00E94AC098091690090916A00BE0130
:101530000E945F1481E090E00E94AC09ADC08091F0
:101540007400823009F076C00E94BB09809193003C
:101550009091940008EE13E0B8010E945F14CAE075
:10156000D0E0BE010E945F14BC0188E090E00E94C0
:10157000AC098091930090919400B8010E945F148F
:10158000BE010E945F14CB01BE010E945F14BC012A
:1015900087E090E00E94AC098091930090919400C4
:1015A000B8010E945F1464E670E00E945F14CB01F2
:1015B000BE010E945F14BC0186E090E00E94AC096D
:1015C0008091930090919400B8010E945F1485E08F
:1015D00090E00E94AC098091850090918600BE0148
:1015E0000E945F14BC0184E090E00E94AC098091ED
:1015F000850090918600BE010E945F1483E090E018
:101600000E94AC098091830090918400BE010E94E9
:101610005F14BC0182E090E00E94AC0980918300DD
:1016200090918400BE010E945F1481E090E00E94CE
:10163000AC0932C00E94BB0980917B0090917C0074
:10164000CAE0D0E0BE010E945F14BC0184E090E0DB
:101650000E94AC0980917B0090917C00BE010E94A9
:101660005F1483E090E00E94AC0980917D0090912E
:101670007E00BE010E945F14BC0182E090E00E94E7
:10168000AC0980917D0090917E00BE010E945F14A4
:1016900081E090E00E94AC09DF91CF911F910F9102
:1016A000089585E083BF81E089BF7894089515BED1
:1016B00014BE80EE8BBF7894089587B3806B87BB90
:1016C0008DB182658DB96FEF89E00E94AC0967E04A
:1016D0008BE00E94AC0965E08AE00E94AC0961E001
:1016E0008CE00E94AC096FEF89E00E94AC090E9477
:1016F0007E010E94F7010E94510B0E94570B0E942D
:10170000580067E08CE890E00E94C3000E94290125
:101710008FEC97E00197F1F700C000008091650021
:10172000909166008053984F90938200809381003F
:1017300020916100309162004091810050918200BF
:1017400060916700709168008091690090916A00D3
:101750000E949B080E94C60920916D0030916E0086
:1017600080917D0090917E0028173907B9F620916D
:101770006F003091700080917B0090917C00281761
:10178000390761F680917600882341F20E94C609EC
:1017900082B3806882BBC2CF1F920F920FB60F92A6
:1017A00011240F931F932F933F934F935F936F9346
:1017B0007F938F939F93AF93BF93CF93DF93EF93D9
:1017C000FF938091790090917A00019690937A002E
:1017D000809379008091790090917A000A9748F17E
:1017E00080917800811121C08091770081111DC006
:1017F0000E945E008FEC97E00197F1F700C00000B7
:1018000067E08CE890E00E94C30080918C000E9409
:10181000060190E0209171003091720082179307C9
:1018200021F00E9429010E94C60910927A001092AC
:1018300079008091790090917A00069708F453C05E
:101840008091790090917A000A9708F04CC08091BD
:101850007500813009F047C080917400813009F033
:1018600042C06FEF89E00E94AC090E94BB096FE0A3
:1018700088E00E94AC096FE087E00E94AC096FE04D
:1018800086E00E94AC096FE085E00E94AC0980917F
:10189000670090916800CAE0D0E0BE010E945F142A
:1018A000682F84E00E94AC098091670090916800E5
:1018B000BE010E945F1483E00E94AC098091690020
:1018C00090916A00BE010E945F14682F82E00E941E
:1018D000AC098091690090916A00BE010E945F147A
:1018E00081E00E94AC098091790090917A0006977E
:1018F00008F475C08091790090917A000A9708F0F9
:101900006EC080917500823009F069C080917400CA
:10191000813009F064C06FEF89E00E94AC090E9439
:10192000BB09809181009091820008EE13E0B8011C
:101930000E945F14CAE0D0E0BE010E945F14682FCD
:1019400088E00E94AC098091810090918200B801EA
:101950000E945F14BE010E945F14CB01BE010E9471
:101960005F14682F87E00E94AC09809181009091FC
:101970008200B8010E945F1464E670E00E945F1468
:10198000CB01BE010E945F14682F86E00E94AC0963
:101990008091810090918200B8010E945F1485E0DF
:1019A0000E94AC096FE084E00E94AC096FE083E024
:1019B0000E94AC098091690090916A00BE010E946A
:1019C0005F14682F82E00E94AC09809169009091B9
:1019D0006A00BE010E945F1481E00E94AC09809100
:1019E000790090917A00069708F475C0809179008B
:1019F00090917A000A9708F06EC08091750083304C
:101A000009F069C080917400813009F064C06FEF03
:101A100089E00E94AC090E94BB09809181009091ED
:101A2000820008EE13E0B8010E945F14CAE0D0E023
:101A3000BE010E945F14682F88E00E94AC0980916B
:101A4000810090918200B8010E945F14BE010E9443
:101A50005F14CB01BE010E945F14682F87E00E94D3
:101A6000AC098091810090918200B8010E945F14BE
:101A700064E670E00E945F14CB01BE010E945F1417
:101A8000682F86E00E94AC098091810090918200CD
:101A9000B8010E945F1485E00E94AC098091670044
:101AA00090916800BE010E945F14682F84E00E943C
:101AB000AC098091670090916800BE010E945F149C
:101AC00083E00E94AC096FE082E00E94AC096FE005
:101AD00081E00E94AC098091790090917A0006978C
:101AE00008F452C08091790090917A000A9708F02A
:101AF0004BC080917500813009F046C08091740020
:101B0000811142C06FEF89E00E94AC090E94BB09BD
:101B10006FE088E00E94AC096FE087E00E94AC09AA
:101B20008091710090917200CAE0D0E0BE010E94E5
:101B30005F14682F86E00E94AC098091710090913B
:101B40007200BE010E945F1485E00E94AC09809182
:101B50006F0090917000BE010E945F14682F84E0B6
:101B60000E94AC0980916F0090917000BE010E94AC
:101B70005F1483E00E94AC096FE082E00E94AC0930
:101B80006FE081E00E94AC098091790090917A0029
:101B9000069708F452C08091790090917A000A97D4
:101BA00008F04BC080917500823009F046C08091EA
:101BB0007400811142C06FEF89E00E94AC090E945D
:101BC000BB096FE088E00E94AC096FE087E00E94EB
:101BD000AC098091710090917200CAE0D0E0BE0122
:101BE0000E945F14682F86E00E94AC09809171000A
:101BF00090917200BE010E945F1485E00E94AC09C2
:101C00006FE084E00E94AC096FE083E00E94AC09C1
:101C100080916D0090916E00BE010E945F14682F4C
:101C200082E00E94AC0980916D0090916E00BE012F
:101C30000E945F1481E00E94AC098091790090912C
:101C40007A00069708F452C08091790090917A004A
:101C50000A9708F04BC080917500833009F046C0A8
:101C600080917400811142C06FEF89E00E94AC093D
:101C70000E94BB096FE088E00E94AC096FE087E03A
:101C80000E94AC096FE086E00E94AC096FE085E03D
:101C90000E94AC0980916F0090917000CAE0D0E082
:101CA000BE010E945F14682F84E00E94AC098091FD
:101CB0006F0090917000BE010E945F1483E00E944B
:101CC000AC0980916D0090916E00BE010E945F147E
:101CD000682F82E00E94AC0980916D0090916E00A7
:101CE000BE010E945F1481E00E94AC0980917900DE
:101CF00090917A00069708F443C080917900909102
:101D00007A000A97E8F5809175008130C9F58091D5
:101D100074008330A9F56FEF89E00E94AC090E943E
:101D2000BB096FE088E00E94AC096FE087E00E9489
:101D3000AC096FE086E00E94AC096FE085E00E948C
:101D4000AC0980917B0090917C00CAE0D0E0BE019C
:101D50000E945F14682F84E00E94AC0980917B0090
:101D600090917C00BE010E945F1483E00E94AC0948
:101D70006FE082E00E94AC096FE081E00E94AC0954
:101D80008091790090917A00069708F443C0809181
:101D9000790090917A000A97E8F580917500823079
:101DA000C9F5809174008330A9F56FEF89E00E9436
:101DB000AC090E94BB096FE088E00E94AC096FE0AB
:101DC00087E00E94AC096FE086E00E94AC096FE0FA
:101DD00085E00E94AC096FE084E00E94AC096FE0EE
:101DE00083E00E94AC0980917D0090917E00CAE062
:101DF000D0E0BE010E945F14682F82E00E94AC090F
:101E000080917D0090917E00BE010E945F1481E070
:101E10000E94AC09FF91EF91DF91CF91BF91AF91FB
:101E20009F918F917F916F915F914F913F912F91F2
:101E30001F910F910F900FBE0F901F9018951F923A
:101E40000F920FB60F9211242F933F934F935F93EE
:101E50006F937F938F939F93AF93BF93EF93FF9372
:101E600080917800811105C0909174009F5F9093DC
:101E7000740090917400943020F0811102C010928F
:101E800074009091740091110AC0882341F010925F
:101E90007400109275000E947E011092780080916B
:101EA0007400813069F480917800882349F081E0E2
:101EB00080937400109275000E947E011092780049
:101EC00080917400833071F480917800882351F000
:101ED00083E0809374001092750081E08093760017
:101EE00010927800FF91EF91BF91AF919F918F91E8
:101EF0007F916F915F914F913F912F910F900FBE06
:101F00000F901F9018951F920F920FB60F921124E9
:101F10008F9381E080937800809175008F5F80932C
:101F2000750080917400811108C080917500843023
:101F300020F010927500109278008091780088232C
:101F400061F080917400823041F48091750084309A
:101F500020F010927500109278008091780088230C
:101F600071F080917400833051F48091750083305A
:101F700030F01092750010927600109277008F91D9
:101F80000F900FBE0F901F9018951F920F920FB6D3
:101F90000F9211242F933F938F939F9380917800FA
:101FA000882309F451C09091740091114DC0909113
:101FB00075009130B1F420916D0030916E002F5F6B
:101FC0003F4F30936E0020936D0020916D00309153
:101FD0006E0028313105C4F110926E0010926D0030
:101FE00033C0909175009230B1F420916F00309120
:101FF00070002F5F3F4F3093700020936F0020914F
:102000006F00309170002C333105F4F010927000A5
:1020100010926F0019C0909175009330A9F420912F
:102020007100309172002F5F3F4F30937200209308
:10203000710020917100309172002C33310524F031
:102040001092720010927100882309F4E3C09091FD
:102050007400913009F0DEC0909175009130B9F4B0
:1020600020916500309166002F5F3F4F30936600EE
:10207000209365002091650030916600243631057B
:102080000CF4C8C01092660010926500C3C0909115
:1020900075009230C9F420916700309168002F5F7D
:1020A0003F4F309368002093670020916700309184
:1020B00068002D3031050CF4ADC021E030E03093E4
:1020C000680020936700A6C090917500933009F0D6
:1020D000A1C02091690030916A002F5F3F4F30937B
:1020E0006A002093690020916700309168002430D5
:1020F0003105A9F020916700309168002630310544
:1021000071F020916700309168002930310539F075
:1021100020916700309168002B30310579F42091CF
:10212000690030916A002F3131050CF473C021E051
:1021300030E030936A00209369006CC02091670002
:10214000309168002130310551F1209167003091C4
:1021500068002330310519F1209167003091680043
:1021600025303105E1F0209167003091680027307B
:102170003105A9F0209167003091680028303105C1
:1021800071F020916700309168002A30310539F0F4
:1021900020916700309168002C30310571F4209156
:1021A000690030916A0020323105A4F121E030E06D
:1021B00030936A00209369002DC0209181003091F6
:1021C00082002D5F3F4F27303105B8F42091810008
:1021D0003091820021573E4F2F31334070F42091CF
:1021E000690030916A002E313105A4F021E030E021
:1021F00030936A00209369000DC0209169003091EE
:102200006A002D31310534F021E030E030936A006E
:1022100020936900882391F180917400833071F5D7
:1022200080917500813099F480917D0090917E00BD
:10223000019690937E0080937D0080917D00909127
:102240007E00489724F010927E0010927D008091CD
:102250007500823099F480917B0090917C0001960A
:1022600090937C0080937B0080917B0090917C0018
:10227000CC9724F010927C0010927B009F918F915C
:102280003F912F910F900FBE0F901F9018955058AF
:10229000BB27AA270E945F110C9419130E940B13ED
:1022A00038F00E94121320F039F49F3F19F426F4FD
:1022B0000C9408130EF4E095E7FB0C94D912E92F67
:1022C0000E942A1358F3BA17620773078407950709
:1022D00020F079F4A6F50C9464130EF4E0950B2E1F
:1022E000BA2FA02D0B01B90190010C01CA01A00168
:1022F0001124FF27591B99F0593F50F4503E68F1C3
:102300001A16F040A22F232F342F4427585FF3CF03
:10231000469537952795A795F0405395C9F77EF4D4
:102320001F16BA0B620B730B840BBAF09150A1F01D
:10233000FF0FBB1F661F771F881FC2F70EC0BA0FA3
:10234000621F731F841F48F4879577956795B7952B
:10235000F7959E3F08F0B0CF9395880F08F0992726
:10236000EE0F9795879508950E94B51208F481E0C5
:1023700008950E94CD110C9419130E94121358F065
:102380000E940B1340F029F45F3F29F00C94D912FE
:1023900051110C9465130C9408130E942A1368F3CE
:1023A0009923B1F3552391F3951B550BBB27AA270E
:1023B00062177307840738F09F5F5F4F220F331F48
:1023C000441FAA1FA9F335D00E2E3AF0E0E832D010
:1023D00091505040E695001CCAF72BD0FE2F29D013
:1023E000660F771F881FBB1F261737074807AB07E5
:1023F000B0E809F0BB0B802DBF01FF2793585F4F5A
:102400003AF09E3F510578F00C94D9120C94651364
:102410005F3FE4F3983ED4F3869577956795B7953B
:10242000F7959F5FC9F7880F911D9695879597F946
:102430000895E1E0660F771F881FBB1F62177307BF
:102440008407BA0720F0621B730B840BBA0BEE1FD4
:1024500088F7E09508950E9432126894B1110C94A7
:10246000651308950E94321388F09F5798F0B92F92
:102470009927B751B0F0E1F0660F771F881F991FB9
:102480001AF0BA95C9F714C0B13091F00E946413E4
:10249000B1E008950C946413672F782F8827B85FF4
:1024A00039F0B93FCCF3869577956795B395D9F711
:1024B0003EF490958095709561957F4F8F4F9F4F1B
:1024C0000895E89409C097FB3EF490958095709527
:1024D00061957F4F8F4F9F4F9923A9F0F92F96E970
:1024E000BB279395F695879577956795B795F111E5
:1024F000F8CFFAF4BB0F11F460FF1BC06F5F7F4F82
:102500008F4F9F4F16C0882311F096E911C0772393
:1025100021F09EE8872F762F05C0662371F096E89C
:10252000862F70E060E02AF09A95660F771F881F6B
:10253000DAF7880F9695879597F908950E944C13BE
:1025400090F09F3748F4911116F00C94651360E0F9
:1025500070E080E89FEB089526F41B16611D711D45
:10256000811D0C94DF120C94FA12990F0008550F7C
:10257000AA0BE0E8FEEF16161706E807F907C0F009
:1025800012161306E407F50798F0621B730B840B11
:10259000950B39F40A2661F0232B242B252B21F4EB
:1025A00008950A2609F4A140A6958FEF811D811D8B
:1025B000089597F99F6780E870E060E008958823A8
:1025C00071F4772321F09850872B762F07C066236C
:1025D00011F499270DC09051862B70E060E02AF02D
:1025E0009A95660F771F881FDAF7880F969587955B
:1025F00097F908959F3F31F0915020F48795779592
:102600006795B795880F911D9695879597F90895C9
:102610009FEF80EC089500240A94161617061806FA
:102620000906089500240A941216130614060506D6
:102630000895092E0394000C11F4882352F0BB0F67
:1026400040F4BF2B11F460FF04C06F5F7F4F8F4FCA
:102650009F4F089557FD9058440F551F59F05F3F05
:1026600071F04795880F97FB991F61F09F3F79F0B4
:1026700087950895121613061406551FF2CF469536
:10268000F1DF08C0161617061806991FF1CF8695B8
:1026900071056105089408950E943213A0F0BEE709
:1026A000B91788F4BB279F3860F41616B11D672F41
:1026B000782F8827985FF7CF869577956795B11D16
:1026C00093959639C8F30895E894BB276627772732
:1026D000CB0197F908950E94B51208F48FEF089581
:1026E0000E9483130C9419130E940B1338F00E945C
:1026F000121320F0952311F00C94D9120C940813A6
:1027000011240C9465130E942A1370F3959FC1F352
:10271000950F50E0551F629FF001729FBB27F00D8F
:10272000B11D639FAA27F00DB11DAA1F649F6627E4
:10273000B00DA11D661F829F2227B00DA11D621F33
:10274000739FB00DA11D621F839FA00D611D221FED
:10275000749F3327A00D611D231F849F600D211DD1
:10276000822F762F6A2F11249F5750409AF0F1F054
:1027700088234AF0EE0FFF1FBB1F661F771F881FBD
:1027800091505040A9F79E3F510580F00C94D9120A
:102790000C9465135F3FE4F3983ED4F386957795E8
:1027A0006795B795F795E7959F5FC1F7FE2B880F63
:1027B000911D9695879597F908959F930E94E71329
:1027C0000F9007FCEE5F0C9410140C9408130E94F9
:1027D0003213D8F3E894E0E0BB279F57F0F02AEDDE
:1027E0003FE049EC06C0EE0FBB0F661F771F881F46
:1027F00028F0B23A62077307840728F0B25A620BD6
:10280000730B840BE3959A9572F7803830F49A95A0
:10281000BB0F661F771F881FD2F790480C94FC12DD
:10282000EF93E0FF07C0A2EA2AED3FE049EC5FEB3F
:102830000E945F110E9419130F90039401FC90589D
:10284000E4E5F0E00C9424149F938F937F936F93AF
:10285000FF93EF939B01AC010E947013EF91FF91E6
:102860000E9438142F913F914F915F910C947013F7
:10287000DF93CF931F930F93FF92EF92DF927B0131
:102880008C01689406C0DA2EEF010E948313FE01CA
:10289000E894A5912591359145915591A6F3EF01C5
:1028A0000E945F11FE019701A801DA9469F7DF9099
:1028B000EF90FF900F911F91CF91DF91089597FBBB
:1028C000072E16F4009407D077FD09D00E947314E8
:1028D00007FC05D03EF4909581959F4F0895709523
:1028E00061957F4F0895AA1BBB1B51E107C0AA1F2A
:1028F000BB1FA617B70710F0A61BB70B881F991FA1
:102900005A95A9F780959095BC01CD010895F8944A
:02291000FFCFF7
:10291200080700010015000C000600020017003B2A
:04292200003200007F
:00000001FF
